:020000040000FA
:060000000A128A110C280F
:10000800FE00030EF8000A08F9000A168A11B22C3D
:100018000A128A110F28F001F101F201F301F4012B
:1000280083120313EC01ED01EE018313A030840069
:10003800C3300A168A110E210A128A1183010A1284
:100048008A1126280A168A11AC220A128A112C282B
:10005800831203139F183128322834289F14342818
:100068000330A0000030A100831603133A08D5001E
:10007800D601550883120313A200831603135608EA
:1000880083120313A3000A168A11BF230A128A11C6
:1000980083120313200883160313D700570883120B
:1000A8000313ED000A168A1116210A128A11693003
:1000B80083120313A0000030A1000A168A111F2121
:1000C8000A128A11831203136D08031D6C286D2808
:1000D8007E280030A000A1000A168A1104220A1204
:1000E8008A1183120313200883160313D5005508B9
:1000F800C000AF2883126D03031D83288428952828
:100108000030A000A1000A168A1104220A128A11DE
:1001180083120313200883160313D5005508BD0066
:10012800AF28023083126D06031D9B289C28AF2838
:100138000030A000A1000A168A1104220A128A11AE
:1001480083120313200883160313D5005508F400FF
:10015800AF28AF28AF28013083160313D500550800
:10016800BA070A128A11F7270A128A110D30831664
:100178000313D600FB30D500D50BC028D60BC028FA
:10018800033083120313A0000030A1008316031369
:100198003808D500D601550883120313A200831628
:1001A8000313560883120313A3000A168A11BF23E8
:1001B8000A128A1183120313200883160313D70027
:1001C8005708F3000A168A1116210A128A1161309B
:1001D80083120313A0000030A1000A168A111F2100
:1001E8000A128A117308031DFA28FB280E29003009
:1001F80083120313A000A1000A168A1104220A120E
:100208008A1183120313200883160313D500550897
:10021800F20041297303031D1229132926290030EE
:1002280083120313A000A1000A168A1104220A12DD
:100238008A1183120313200883160313D500550867
:10024800B700412902307306031D2B292C294129A7
:10025800003083120313A000A1000A168A11042299
:100268000A128A1183120313200883160313D50078
:100278005508F1004129412941290130831603130A
:10028800D5005508B8070A128A11F7270A128A11E9
:100298000D3083160313D600FB30D500D50B522939
:1002A800D60B52298316031336080139D500550891
:1002B800B5000A168A1116210A128A1171308312A2
:1002C8000313A0000030A1000A168A111F210A1288
:1002D8008A11831603133508031D73297429872986
:1002E800003083120313A000A1000A168A11042209
:1002F8000A128A1183120313200883160313D500E8
:100308005508B400A0293503031D8B298C29A02981
:10031800003083120313A000A1000A168A110422D8
:100328000A128A1183120313200883160313D500B7
:100338005508B300A029A0290130D5005508B607F3
:100348000A128A11F7270A128A110D30831603132D
:10035800D600FB30D500D50BAF29D60BAF294330DB
:1003680083120313E7007F30E6000030E500003019
:10037800E4004030CD00A030CC000030CB0000308D
:10038800CA00831603134008D500D601D701D80147
:10039800580883120313A300831603135708831204
:1003A8000313A20083160313560883120313A10034
:1003B80083160313550883120313A00000300A1292
:1003C8008A11C0260A128A11831203132308D10046
:1003D8002208D0002108CF002008CE000A128A1572
:1003E8008B240A128A11831203134D08EB004C0860
:1003F800EA004B08E9004A08E8000A128A15C821F1
:100408000A128A1183120313670883160313AF00B5
:1004180083120313660883160313AE0083120313B3
:10042800650883160313AD0083120313640883164B
:100438000313AC003C3083120313E7002330E600BB
:10044800D730E5000A30E400831603132F0883121F
:100458000313EB00831603132E0883120313EA0019
:10046800831603132D0883120313E900831603135D
:100478002C0883120313E8000A128A15C8210A12ED
:100488008A1183120313670883160313A7008312C4
:100498000313660883160313A60083120313650863
:1004A80083160313A500831203136408831603132A
:1004B800A400270883120313A30083160313260836
:1004C80083120313A2008316031325088312031350
:1004D800A10083160313240883120313A0000A1231
:1004E8008A152C210A128A118312031320088316F5
:1004F8000313D500550883120313EE004230CD00D4
:10050800C830CC000030CB000030CA00831603137B
:10051800270883120313B5008316031326088312D2
:100528000313B40083160313250883120313B300BF
:1005380083160313240883120313B2006E0883166C
:100548000313D500D601D701D80158088312031325
:10055800A30083160313570883120313A2008316FC
:100568000313560883120313A100831603135508B7
:1005780083120313A00001300A128A11C0260A123E
:100588008A11831203132308B1002208B00021083E
:10059800AF002008AE000A168A1138210A128A1103
:1005A800831203133108B9003008B8002F08B700C8
:1005B8002E08B6000A168A1144250A128A118312D7
:1005C80003133508D1003408D0003308CF003208AF
:1005D800CE000A128A158B240A128A118312031379
:1005E8004D0883160313AB00831203134C088316BC
:1005F8000313AA00831203134B0883160313A900DD
:10060800831203134A0883160313A8002B088312C6
:100618000313A300831603132A0883120313A200EB
:1006280083160313290883120313A10083160313E7
:10063800280883120313A0000A128A152C210A1213
:100648008A1183120313200883160313D500550853
:10065800BE0083120313851C322B332B372B8316D2
:100668000313B201B20A831285183B2B3C2B6F2B64
:100678008316031332080319422B432B6F2B0130C7
:10068800D500550883120313EC070330A00000308F
:10069800A1006C0883160313D500D60155088312F0
:1006A8000313A20083160313560883120313A3002F
:1006B8000A168A11BF230A128A118312031320080B
:1006C80083160313D700570883120313EC0083160D
:1006D8000313B2016F2B8312051D732B742B782B18
:1006E80083160313B101B10A831205197C2B7D2BE4
:1006F8008F2B8316031331080319832B842B8F2B1D
:100708000130D5005508B00730080139D500550823
:10071800B000B1018F2B72080319932B942B972BE0
:10072800831205149A2B831205109A2B3C306E0203
:10073800031C9F2BA02BA22B0516A42B0512A42B60
:10074800831603133008031DAA2BAB2BC92C831265
:100758000313A301A30A01300A168A116E210A1293
:100768008A11831203136C08031DBB2BBC2BDA2BD5
:100778008530A2008030A3000A168A112A230A12A3
:100788008A11831203136E080A168A118E210A121F
:100798008A11B0300A168A1147210A128A11433089
:1007A8000A168A1147210A128A11282C8312031368
:1007B8006C03031DE02BE12B282C8B30A20080302A
:1007C800A3000A168A112A230A128A11FF308312FB
:1007D8000313A6000030A700831603133708D500BB
:1007E800D601550883120313A00083160313560875
:1007F80083120313A1006430A2000030A3000A167C
:100808008A11AE210A128A11831203132108A90042
:100818002008A8000A128A1184270A128A11831252
:10082800031326080A168A118E210A128A1120300B
:100838000A168A1147210A128A1125300A168A11C6
:1008480047210A128A11282C563083120313A2005A
:100858008030A3000A168A112A230A128A118312E9
:100868000313A301A30A02300A168A116E210A1281
:100878008A11831203136C08031D432C442C712C1A
:100888007630A2008030A3000A168A112A230A12A1
:100898008A1174080319512C522C5E2C21308312B2
:1008A8000313A2008030A3000A168A112A230A1211
:1008B8008A116A2C123083120313A2008030A3001D
:1008C8000A168A112A230A128A116A2C20300A165B
:1008D8008A1147210A128A11BD2C831203136C0353
:1008E800031D772C782C942C710803197C2C7D2CF3
:1008F800872C3C30A2008030A3000A168A112A23D4
:100908000A128A11BD2C383083120313A2008030DA
:10091800A3000A168A112A230A128A11BD2CBD2C9B
:100928000230831203136C06031D9B2C9C2CBD2CD8
:100938008316031333080319A22CA32CAF2C4730BA
:1009480083120313A2008030A3000A168A112A23F7
:100958000A128A11BD2C293083120313A200803099
:10096800A3000A168A112A230A128A11BD2CBD2C4B
:10097800BD2C563083120313A2008030A3000A1640
:100988008A112A230A128A112C2883120313A3011D
:10099800A30A01300A168A116E210A128A118312DB
:1009A80003136C08031DD92CDA2C072D7630A2000E
:1009B8008030A3000A168A112A230A128A117408A1
:1009C8000319E72CE82CF42C213083120313A2001E
:1009D8008030A3000A168A112A230A128A11002DD0
:1009E800123083120313A2008030A3000A168A1162
:1009F8002A230A128A11002D20300A168A1147214B
:100A08000A128A112B2D831203136C03031D0D2D5B
:100A18000E2D2B2D71080319122D132D1D2D3C3071
:100A2800A2008030A3000A168A112A230A128A110A
:100A38002B2D383083120313A2008030A3000A162E
:100A48008A112A230A128A112B2D2B2D2B2D831262
:100A58000313A301A30A02300A168A116E210A128F
:100A68008A11831203136C08031D3B2D3C2D6B2D3B
:100A78006E30A2008030A3000A168A112A230A12B7
:100A88008A11831603133D0803194B2D4C2D582D3D
:100A98007E3083120313A2008030A3000A168A1145
:100AA8002A230A128A11642D623083120313A200CA
:100AB8008030A3000A168A112A230A128A11642D8B
:100AC80020300A168A1147210A128A112C2883120B
:100AD80003136C03031D712D722D8E2D72080319DB
:100AE800762D772D812D1A30A2008030A3000A16AA
:100AF8008A112A230A128A112C280B308312031315
:100B0800A2008030A3000A168A112A230A128A1129
:100B18002C282C280230831203136C06031D952DF4
:100B2800962D2C2883160313330803199C2D9D2D0D
:100B3800A92D473083120313A2008030A3000A16A0
:100B48008A112A230A128A112C28293083120313A6
:100B5800A2008030A3000A168A112A230A128A11D9
:100B68002C282C282C282C282C282C282C280A1215
:100B78008A110C2883120313B9002F30B1003108F1
:100B8800B400A62E25303A060319CB2DCC2DD82D2E
:100B98003A08B10039088400310883138000013015
:100BA800B1003108B907A62EB501DF2DBA2EFC2DEC
:100BB800FC2DA62EFC2D0130AE07FF302E07840039
:100BC8000A128A150A200A128A11BA00B100B20163
:100BD8003208003A0319F12DA62E3108003A0319FC
:100BE800BA2E643A0319FC2D0D3A0319FC2DA62ED2
:100BF8003408840083130008B700840A0008B8008A
:100C08000230B1003108B407B81F0B2E0C2E162E77
:100C18000330B1003108B504B709B809B70A031998
:100C2800B80A162EBA01BA0A05303A06031D1D2E57
:100C38001E2E202E482E482E3A08B1003107013EBC
:100C480084000A128A150A200A128A11B2000A12AE
:100C58008A150A200A128A11B30033083802031DC4
:100C6800372E3208370203183A2E3B2E3D2E482ED7
:100C7800482E0130B1003108BA0705303A06031D85
:100C8800462E472E202E482E3508033903194D2E9F
:100C98004E2E5A2E2D30B1003908840031088313A6
:100CA80080000130B1003108B9075A2E3A08B10066
:100CB8003108B6009B2E0A30A8000030A90036087B
:100CC800B1003107013E84000A128A150A200A126F
:100CD8008A11A0000A128A150A200A128A11A10094
:100CE8003808A3003708A2000A168A1172230A12CC
:100CF8008A11831203132108AB002008AA000A16E0
:100D08008A11E7220A128A11831203132808303E37
:100D1800B2003208BA003A08B10039088400310834
:100D2800831380000130B1003108B9079B2EFF30D2
:100D3800B1003108B607360A031DA32EA42E5F2E74
:100D4800A62EA62E0130AE07FF302E0784000A1209
:100D58008A150A200A128A11B1003108BA003A0825
:100D6800031DB72EB82EC62DBA2EBA2E3908840008
:100D780083138001BF2E080083120313A8002808DC
:100D88000319C72EC82EDC2EA31FCB2ECC2EDC2E8B
:100D98002009AA002109AB002209AC002309AD00F3
:100DA800AA0A0319AB0A0319AC0A0319AD0AE42EFF
:100DB8002308AD002208AC002108AB002008AA00D7
:100DC8002308220421042004031DEB2EEC2EF62E0A
:100DD8000030A3000030A2000030A1000030A000C5
:100DE800832F832F9630A4002408A900092F0130EF
:100DF800A4002408A90701300310AD0CAC0CAB0CFF
:100E0800AA0CFF3E031D002F092FFE302D05031DE0
:100E18000E2F0F2FFB2E2C2F2C2F0130A40024086F
:100E2800A9070130AA07003003180130AB070030CA
:100E380003180130AC07003003180130AD0701304A
:100E48000310AD0CAC0CAB0CAA0CFF3E031D242FF9
:100E5800FF302D05031D312F322F112F402F402F2A
:100E68000130A9020130A4000310AA0DAB0DAC0D8E
:100E7800AD0DA40B382F402FAC1B432F442F4B2F05
:100E8800023029020318492F4A2F342F4B2F2918D3
:100E98004E2F4F2F572FFF30AA05FF30AB057F305D
:100EA800AC05FF30AD050310A90C2908A400A50165
:100EB800A601A70118300310A40DA50DA60DA70DB6
:100EC800FF3E031D5F2F2408AA042508AB0426084B
:100ED800AC042708AD0428080319732F742F7A2F40
:100EE800A31F772F782F7A2FAD177A2F2D08A300FD
:100EF8002C08A2002B08A1002A08A000832F0800B4
:100F080083120313AC01A71F8A2F8B2F932FA609D7
:100F1800A709A60A0319A70AAC01AC0A932FA91FAF
:100F2800962F972FA12FA809A909A80A0319A90A7A
:100F38000130AA002A08AC06A12FAD01AE0126088F
:100F480027040319A82FA92FE62FAB01AB0AB82F46
:100F580001300310A60DA70DFF3E031DAD2F013074
:100F6800AA002A08AB07B82FA71FBB2FBC2FAC2F8E
:100F7800BE2FBE2F01300310AD0DAE0DFF3E031D79
:100F8800BF2F27082902031DCB2F26082802031C80
:100F9800CE2FCF2FD72F2608A8022708031CA90376
:100FA800A9022D14D72F01300310A70CA60CFF3E61
:100FB800031DD82F0130AB02031DE32FE42FBE2FF2
:100FC800E62FE62F2C080319EA2FEB2FF12FAD0996
:100FD800AE09AD0A0319AE0AF12F2E08A7002D0895
:100FE800A600F62F08000A168A1129210A128A116A
:100FF8008316031311150800FF1B0A2883137F1893
:1010080083170008840A0319FF0A080008308A00B9
:101018000408840A82070034013400340A34003496
:1010280064340034E83403341034273450345534ED
:1010380045345234543441342034433445345234E2
:1010480052344134443441340034503455344534F6
:1010580052345434413420344134423449344534D0
:1010680052345434413400344734413452344134D6
:1010780047344534203443344534523452344134AF
:1010880044344F340034533449344E3420344D34CE
:101098004F34563449344D34493445344E3454343D
:1010A8004F340034473441345234413447344534A2
:1010B80020344134423449344534523454344F3462
:1010C8000034203420342034203420342034203498
:1010D800203420342034203400344434453453340C
:1010E800433441345434493456344134443441341B
:1010F800003441344C34413452344D34413420347A
:101108000034503455344534523454344134203446
:10111800003441344334543449345634413400346F
:10112800543445344D345034203400344C34553420
:101138005A342034003425346434003483120313C1
:101148001E08A628080083120313A200081022080C
:1011580086008814063083120313A1002F30A000E4
:10116800A00BB428A10BB428B92883120313881044
:101178000800003083120313AC000030AB000030CD
:10118800AA000030A900230822042104200403191E
:10119800CE28CF282229AD01AD0AE0280130A800C9
:1011A8000310A00DA10DA20DA30DA80BD42801308A
:1011B800A8002808AD07E028A31FE328E428D228C0
:1011C800E628E6280130A8000310A90DAA0DAB0DEA
:1011D800AC0DA80BE82823082702031DFD282208C8
:1011E8002602031DFD2821082502031DFD282008CD
:1011F8002402031C0029012911292008A40221081E
:10120800031C210FA5022208031C220FA602230893
:10121800031C230FA7022914112901300310A30C62
:10122800A20CA10CA00CFF3E031D12290130AD0237
:10123800031D1F292029E628222922292C08A3007A
:101248002B08A2002A08A1002908A0002B290800C1
:10125800831203132008A4002108A5002208A60071
:101268002308A7000310260D270DA8002808AA00A8
:101278002A08031D402941294B290030A3000030CA
:10128800A2000030A1000030A000C729C72920080B
:10129800A4002108A5002208A6002308A7001F30E3
:1012A8000310A70CA60CA50CA40CFF3E031D542983
:1012B8002408A8002808A900A217FF30A005FF30BD
:1012C800A105FF30A2050030A3059630AA02AA1F87
:1012D8006E296F2994292A08803A973E03187529A0
:1012E800762981290030A3000030A2000030A10037
:1012F8000030A000C729C729812901300310A30C99
:10130800A20CA10CA00CFF3E031D82290130A400F1
:101318002408AA07031D912992298129B729B729E9
:1013280020302A02031C99299A29B0290030A300E9
:101338000030A2000030A1000030A000C729C72952
:10134800B0290130A4000310A00DA10DA20DA30D1A
:10135800A40BA7290130AA022A08031DB429B5291C
:10136800A529B729B72929080319BB29BC29C729E1
:10137800A009A109A209A309A00A0319A10A03192E
:10138800A20A0319A30A0800831203136B08803901
:1013980083160313C3004308CC00831203136B089E
:1013A80083160313C3004307C4004408D300831201
:1013B8000313EA1FE029E129E529831603135314CF
:1013C800E5298316031353080319EB29EC29002A8E
:1013D800530A031DF029F129FC2900308312031355
:1013E800EB000030EA000030E9000030E800FC299A
:1013F8008312EA17EB010A2A00308312EB0000304F
:10140800EA000030E9000030E8000A2A670880395D
:1014180083160313C3004308CC068312031367081B
:1014280083160313C3004307C4004408D40083127F
:101438000313E61F202A212A252A8316031354148E
:10144800252A83160313540803192B2A2C2A402A09
:10145800540A031D302A312A3C2A00308312031310
:10146800E7000030E6000030E5000030E4003C2AE8
:101478008312E617E701492A00308312E70000309B
:10148800E6000030E5000030E40067086604650403
:101498006404031D502A512A6F2A0030EB000030E3
:1014A800EA000030E9000030E8008030EA047F30CC
:1014B800EB04831603134C08C30043088312031379
:1014C800EB046B08E7006A08E6006908E5006808AD
:1014D800E4008A2C8A2C831603135308031D752AEB
:1014E800762A8A2A003083120313EB000030EA00C0
:1014F8000030E9000030E8006B08E7006A08E60001
:101508006908E5006808E4008A2C8A2C831603130E
:101518005408C300C401C309C409C30A0319C40A8F
:1015280053084307C50044080318440AC600450881
:101538007F3ECD0046080318013E003ECE008312D0
:1015480003136B0883160313CB00831203136A0873
:1015580083160313CA00831203136908831603133F
:10156800C90083120313680883160313C8000030E8
:1015780083120313EB000030EA000030E90000306A
:10158800E800003083160313D2000030D100003089
:10159800D0000030CF00D401512B54080319D52AAC
:1015A800D62A002B0130C3000310C80DC90DCA0D7F
:1015B800CB0DC30BD82A0130C300031083120313C9
:1015C800E80DE90DEA0DEB0D83160313C30BE12AB1
:1015D800D21FEF2AF02AF42A831203136814F42A7C
:1015E800013083160313C3000310CF0DD00DD10DA6
:1015F800D20DC30BF82A002B831203136708831636
:1016080003134B02031D1E2B831203136608831654
:1016180003134A02031D1E2B831203136508831646
:1016280003134902031D1E2B831203136408831638
:1016380003134802031C212B222B4C2B5217831215
:101648000313640883160313C8028312031365087F
:10165800031C650F302B332B83160313C902831227
:1016680003136608031C660F3A2B3D2B83160313DE
:10167800CA02831203136708031C670F442B472B06
:1016880083160313CB0283120313831603134C2B05
:101698000130C3004308D407512B1A305402031CED
:1016A800562B572BD12A582B4B084A044904480477
:1016B80003195F2B602B8C2B4F148C2B8C2B013038
:1016C80083160313C300031083120313E80DE90DF7
:1016D800EA0DEB0D83160313C30B672BD21F752B73
:1016E800762B7A2B8312031368147A2B0130831616
:1016F8000313C3000310CF0DD00DD10DD20DC30BB2
:101708007E2BFF30CD070318CE0AFF30CE078C2B77
:1017180083120313EA1F912B922B632B932B8316AF
:101728000313D401D21F992B9A2BBE2BFF304F05E0
:10173800C300FF305005C400FF305105C5007F309D
:101748005205C60046084504440443040319AD2B5A
:10175800AE2BB12BD401D40ABE2B83120313681C01
:10176800B62BB72BBE2B83160313D401D40ABE2B7A
:10177800BE2BBE2B8316031354080319C42BC52B89
:10178800182C013083120313E807003003180130C6
:10179800E907003003180130EA0700300318013068
:1017A800EB076B1CD82BD92B182C6808831603134E
:1017B800C30083120313690883160313C40083123A
:1017C80003136A0883160313C500831203136B08F7
:1017D80083160313C6000130C700460DC60CC50C9E
:1017E800C40CC30CC70BF12B460883120313EB0080
:1017F80083160313450883120313EA0083160313A1
:10180800440883120313E900831603134308831261
:101818000313E800013083160313CD070318CE0A1B
:101828000030CE07182C182C831603134E08803A64
:10183800FF0080307F02031D232CFF304D02031C64
:10184800262C272C382CFF3083160313CD000030AC
:10185800CE00003083120313EB000030EA000030A2
:10186800E9000030E800382C831603134E08803A4C
:10187800FF0080307F02031D432C01304D02031806
:10188800462C472C582C83160313CD01CE0100306B
:1018980083120313EB000030EA000030E900003047
:1018A800E80083160313CC01831603134D08C30005
:1018B8004308D300531C612C622C662C831203133B
:1018C800EA176E2C7F3083160313C3004308831274
:1018D8000313EA05831603135308C3000310430CCC
:1018E800C400440883120313EB00831603134C0847
:1018F800C300430883120313EB046B08E7006A086C
:10190800E6006908E5006808E4008A2C08008312EC
:1019180003134D088039D2005208D7004D08D20071
:101928005207D3005308DD00CC1F9B2C9C2C9E2C07
:101938005D149E2C5D080319A22CA32CB32C5D0A00
:10194800031DA72CA82CB12C0030CD000030CC00F2
:101958000030CB000030CA00B12CCC17BC2C0030B2
:10196800CD000030CC000030CB000030CA00BC2CC9
:1019780051088039D2005208D7065108D2005207C0
:10198800D3005308D800D01FCA2CCB2CCD2C581408
:10199800CD2C58080319D12CD22CE22C580A031D3F
:1019A800D62CD72CE02C0030D1000030D0000030ED
:1019B800CF000030CE00E02CD017EB2C0030D10047
:1019C8000030D0000030CF000030CE00EB2C58089B
:1019D8000319EF2CF02CF62C5D08031DF42CF52CC4
:1019E800002DF62C0030CD000030CC000030CB00AC
:1019F8000030CA00FF2FFF2F4A08D2005208A0006B
:101A080050080A168A11D8210A128A15831203135C
:101A18002108E3002008E2006208D200D301D401C3
:101A2800D5015508DC005408DB005308DA005208D9
:101A3800D9006308D200D301D401D5015508E100CB
:101A48005408E0005308DF005208DE004B08D200BB
:101A58005208A0004F080A168A11D8210A128A15BE
:101A6800831203132108E3002008E2006208D20071
:101A7800D301D401D5015208D9075308031103181B
:101A8800013E0319482DDA07540803110318013ED3
:101A980003194F2DDB07550803110318013E0319DD
:101AA800562DDC076308D200D301D401D5015208B2
:101AB800DE07530803110318013E0319642DDF07DD
:101AC800540803110318013E03196B2DE00755084C
:101AD80003110318013E0319722DE1074C08D200C7
:101AE8005208A0004E080A168A11D8210A128A152F
:101AF800831203132108E3002008E2006208D200E1
:101B0800D301D401D5015208D9075308031103188A
:101B1800013E0319902DDA07540803110318013EFA
:101B28000319972DDB07550803110318013E031904
:101B38009E2DDC076308D200D301D401D5015208D9
:101B4800DE07530803110318013E0319AC2DDF0704
:101B5800540803110318013E0319B32DE007550873
:101B680003110318013E0319BA2DE1070830D2000A
:101B78000310D90DDA0DDB0DDC0DD20BBC2D4B0893
:101B8800D2005208A0004E080A168A11D8210A125B
:101B98008A15831203132108E3002008E200620873
:101BA800D2006308D300D401D5015208D9075308DD
:101BB80003110318013E0319E22DDA075408031133
:101BC8000318013E0319E92DDB0755080311031813
:101BD800013E0319F02DDC074A08D2005208A00084
:101BE8004F080A168A11D8210A128A15831203137C
:101BF8002108E3002008E2006208D2006308D3004D
:101C0800D401D5015208D907530803110318013E1E
:101C180003190F2EDA07540803110318013E03199C
:101C2800162EDB07550803110318013E03191D2E54
:101C3800DC070830D2000310D90DDA0DDB0DDC0DFE
:101C4800D20B1F2E4A08D2005208A0004E080A16CE
:101C58008A11D8210A128A15831203132108E30076
:101C68002008E2006208D2006308D300D401D5013D
:101C78005208D907530803110318013E0319452ECA
:101C8800DA07540803110318013E03194C2EDB0729
:101C9800550803110318013E0319532EDC074B089E
:101CA800D2005208A00050080A168A11D8210A1238
:101CB8008A15831203132108E3002008E200620852
:101CC800D2006308D300D401D5015208DE075308B7
:101CD80003110318013E0319722EDF07540803117C
:101CE8000318013E0319792EE0075508031103185C
:101CF800013E0319802EE1074C08D2005208A000CB
:101D08004F080A168A11D8210A128A15831203135A
:101D18002108E3002008E2006208D2006308D3002B
:101D2800D401D5015208DE07530803110318013EF8
:101D380003199F2EDF07540803110318013E0319E6
:101D4800A62EE007550803110318013E0319AD2E0E
:101D5800E1074C08D2005208A00050080A168A1160
:101D6800D8210A128A15831203132108E3002008D8
:101D7800E2006208D2006308D300D401D50108301C
:101D88000310D20DD30DD40DD50DFF3E031DC42E67
:101D98005208DE07530803110318013E0319D52E14
:101DA800DF07540803110318013E0319DC2EE0076E
:101DB800550803110318013E0319E32EE1075908DA
:101DC800D2005A08D3005B08D4005C08D50018304C
:101DD8000310D50CD40CD30CD20CFF3E031DEC2EF3
:101DE8005208DE07530803110318013E0319FD2E9C
:101DF800DF07540803110318013E0319042FE007F5
:101E0800550803110318013E03190B2FE107083089
:101E1800D2000310D90DDA0DDB0DDC0DD20B0D2F1E
:101E28005D085807D200D301D30D5208823EE20064
:101E380053080318013EFF3EE300412F0130D20052
:101E48000310DE0DDF0DE00DE10DD20B242FDC1F9A
:101E58002E2F2F2F312F5E14312F0130D200031077
:101E6800D90DDA0DDB0DDC0DD20B332FFF30E20775
:101E78000318E30AFF30E307412FE01F442F452FE3
:101E8800222F462FD801DC1F4A2F4B2F6B2FFF30F4
:101E98005905D200FF305A05D300FF305B05D40046
:101EA8007F305C05D50055085404530452040319C7
:101EB8005E2F5F2F622FD801D80A6B2F5E1C652F0B
:101EC800662F6B2FD801D80A6B2F6B2F6B2F5808F2
:101ED80003196F2F702FA32F0130DE07003003186E
:101EE8000130DF07003003180130E0070030031825
:101EF8000130E107611C812F822FA32F5E08D200D9
:101F08005F08D3006008D4006108D5000130D6000E
:101F1800550DD50CD40CD30CD20CD60B8C2F5508E0
:101F2800E1005408E0005308DF005208DE000130E9
:101F3800E2070318E30A0030E307A32FA32F63087F
:101F4800803AFF0080307F02031DAC2FFF30620211
:101F5800031CAF2FB02FBB2F7F3083120313E10078
:101F68008030E0000030DF000030DE00F22F831206
:101F780003136308803AFF0080307F02031DC62FD9
:101F8800013062020318C92FCA2FD62F00308312DE
:101F98000313E1000030E0000030DF000030DE0015
:101FA800D701F22F831203136208D2005208DD0012
:101FB800FF30DE05FF30DF057F30E0050030E1054A
:101FC8005D1CE72FE82FEA2FE017EA2F5D08D20003
:101FD8000310520CD3005308E100F22F5708D20027
:101FE8005208E1046108CD006008CC005F08CB000E
:081FF8005E08CA00FF2F08007B
:10220E0001300A128A15A7200A168A1108006400E6
:10221E008001840A04060319003404060F290A16E5
:10222E008A1129210A168A11831603131114080024
:10223E000A168A1129210A168A11831203132008FD
:10224E00930008002A298316031314192F29302905
:10225E002A2911081F39031D352936292A2937291C
:10226E00080083120313310830042F042E040319BF
:10227E004129422945298030B106452946290800C1
:10228E0083120313A10008142108860088140C3051
:10229E0083120313A000A00B522900008312031314
:1022AE0088100800F6005B2983160313981C60291A
:1022BE0061295B2962297608831203139900C730BE
:1022CE00F5006929F50B68296C296D290800831220
:1022DE000313A5002503031D752976297E292308DE
:1022EE007F3EA400240883160313C200872983129D
:1022FE002308BF3EA400240883160313C2008729B7
:10230E0042080A128A15A7200A168A11080083129B
:10231E000313C2009030BB003B08AE004208BC0065
:10232E00BD013C08AF003D08B0003E300A128A11D4
:10233E00BE250A168A113E3083120313A200003006
:10234E00A3000A168A112A230A168A11080083127C
:10235E000313A401A501B329201CB629B729BD2951
:10236E002208A4070318A50A2308A50701300310A5
:10237E00A20DA30DFF3E031DBE2901300310A10CBB
:10238E00A00CFF3E031DC52920082104031DD029E2
:10239E00D129B329D2292508A1002408A000D729C4
:1023AE00080083120313A800A401A5012008A200AF
:1023BE00A3012208A6002308A700E529281CE82966
:1023CE00E929EF292608A4070318A50A2708A50757
:1023DE0001300310A60DA70DFF3E031DF0290310BB
:1023EE00A80C2808031DFC29FD29E529FE2925082E
:1023FE00A1002408A000032A08000A168A11292128
:10240E000A168A118316031391150A168A112921A9
:10241E000A168A11831203131308A200A3012208BD
:10242E00A4002308A5000A168A1129210A168A116A
:10243E008312031320032104031D262A272A2B2A85
:10244E008316031391122E2A831603139116111657
:10245E00831203132508A1002408A000362A0800C1
:10246E0028308312031394008316031391018312F1
:10247E0003132E08B2002F08B3003008B400310841
:10248E00B50002300310B20DB30DB40DB50DFF3E05
:10249E00031D492A3508A3003408A2003308A10001
:1024AE003208A0000030A7003D30A6000930A5007C
:1024BE000030A4000A128A15BD200A168A11831252
:1024CE0003132008FF3E8316031393009401871510
:1024DE0007160800143083120313A4007930A300EA
:1024EE00A30B772AA40B772A30300A128A15A7205D
:1024FE000A168A1130300A128A15A7200A168A1176
:10250E0030300A128A15A7200A168A1138300A129C
:10251E008A15A7200A168A1110300A128A15A720CA
:10252E000A168A1101300A128A15A7200A168A1174
:10253E0006300A128A15A7200A168A110E300A12C0
:10254E008A15A7200A168A11080083160317880118
:10255E0089018316031386018801831203138601F2
:10256E0088010030B1000130B0008630AF00A030DD
:10257E00AE000A168A1137220A168A11803083128B
:10258E000313A0002530A100A201A20AA301A30AF1
:10259E00A4010A168A1124240A168A110A168A110F
:1025AE0071220A168A110A168A1107210A168A1131
:1025BE0083160313851405150510051285120800E0
:1025CE0083120313280829040319EE2AEF2A242B59
:1025DE00AD01AD0AFE2A01300310A80DA90DFF3E74
:1025EE00031DF32A0130AC002C08AD07FE2AA91FEB
:1025FE00012B022BF22A042B042B29082B02031D7C
:10260E000A2B28082A02031C0D2B0E2B152B28082B
:10261E00AA022908031CAB03AB02152B01300310D1
:10262E00A90CA80CFF3E031D162B0130AD02031D95
:10263E00212B222B042B242B242B2B08A9002A0818
:10264E00A800292B080083120313A701A801542BFD
:10265E0027082207A5002308A4000318A40AA71F11
:10266E00392BA403831203132408A6002608FF00A7
:10267E00250884000A128A1500200A168A110A16E5
:10268E008A1147210A168A11013083120313A707F4
:10269E000318A80A0030A807542B27082207A50004
:1026AE002308A4000318A40AA71F5E2BA4038312F9
:1026BE0003132408A6002608FF00250884000A122A
:1026CE008A1500200A168A11003A031D6F2B702BF3
:1026DE002F2B712B080083120313A601A7012008CC
:1026EE00210403197B2B7C2BB92BA501A50A8B2B5F
:1026FE0001300310A00DA10DFF3E031D802B0130F4
:10270E00A4002408A5078B2BA11F8E2B8F2B7F2BAC
:10271E00912B912B01300310A60DA70DFF3E031D2B
:10272E00922B21082302031D9E2B20082202031C3C
:10273E00A12BA22BAA2B2008A2022108031CA30363
:10274E00A3022614AA2B01300310A10CA00CFF3EED
:10275E00031DAB2B0130A502031DB62BB72B912BFE
:10276E00B92BB92B2708A1002608A000BE2B080004
:10277E0083120313A601A31FC52BC62BCE2BA209B2
:10278E00A309A20A0319A30AA601A60ACE2BA11F0A
:10279E00D12BD22BD82BA009A109A00A0319A10A6B
:1027AE00D82B200821040319DD2BDE2B132CA501B9
:1027BE00A50AED2B01300310A00DA10DFF3E031D48
:1027CE00E22B0130A4002408A507ED2BA11FF02B4E
:1027DE00F12BE12BF32BF32B21082302031DF92BF5
:1027EE0020082202031CFC2BFD2B042C2008A20225
:1027FE002108031CA303A302042C01300310A10C17
:10280E00A00CFF3E031D052C0130A502031D102C4C
:10281E00112CF32B132C132C26080319172C182C00
:10282E001E2CA209A309A20A0319A30A1E2C23080F
:10283E00A1002208A000232C08008316031387177B
:10284E008C12831203139817240C83160313031C84
:10285E001812031818168312031323080319382CA1
:10286E00392C412C1816831603138C16831203135E
:10287E008C12412C22080319452C462C492C831608
:10288E00031398168316031787158316031318114F
:10289E002C30831203132006031D592C2103031D14
:1028AE00592C5A2C612C4030831603139900033097
:1028BE009A00AF2CB0308312200604300319210683
:1028CE00031D6A2C6B2C702CCF30831603139900CA
:1028DE00AF2C603083122006093003192106031D28
:1028EE00792C7A2C7F2C6730831603139900AF2C2A
:1028FE00803083122006253003192106031D882CF3
:10290E00892C8E2C1930831603139900AF2CB130FD
:10291E0083122006283003192106031D972C982CAC
:10292E009D2C1730831603139900AF2C4B30831256
:10293E0021062004031DA42CA52CAF2C0C308316CD
:10294E0003139900AF2CAF2CAF2CAF2CAF2CAF2CA8
:10295E000B178B170800831203139F18B72CB82C74
:10296E00C62C0A128A15A2200A168A11F7007708B9
:10297E0083160313BF00831203130C13C62C8C1E75
:10298E00C92CCA2C3D2D05141A08F7007708F00043
:10299E007008031DD32CD42CDB2C44300A168A115C
:1029AE0059210A168A113D2D7003031DDF2CE02CD0
:1029BE00E72C5D300A168A1159210A168A113D2D0F
:1029CE0002307006031DEC2CED2CF42C20300A1670
:1029DE008A1159210A168A113D2D03307006031DE6
:1029EE00F92CFA2C012D2E300A168A1159210A16AD
:1029FE008A113D2D04307006031D062D072D0E2D58
:102A0E0078300A168A1159210A168A113D2D053081
:102A1E007006031D132D142D1B2D03300A168A115B
:102A2E0059210A168A113D2D06307006031D202DE0
:102A3E00212D282D63300A168A1159210A168A1162
:102A4E003D2D07307006031D2D2D2E2D3D2D0E30E4
:102A5E000A168A1159210A168A113D2D3D2D3D2D3A
:102A6E003D2D3D2D3D2D3D2D3D2D3D2D79088A00D1
:102A7E00780E8300FE0E7E0E0900831203133508B6
:102A8E008039BA003A08C6003508BA003A07BB00CA
:102A9E003B08C800B41F542D552D572D4814572DE3
:102AAE00480803195B2D5C2D6D2D480A031D602D02
:102ABE00612D6A2D0030B5000030B4000030B30037
:102ACE000030B2006A2DB417B501762D0030B50076
:102ADE000030B4000030B3000030B200762D39085B
:102AEE008039BA003A08C700470846060319802DF8
:102AFE00812D832D4617832D3908BA003A07BB0066
:102B0E003B08C700B81F8C2D8D2D8F2D47148F2D90
:102B1E0047080319932D942DA52D470A031D982DB3
:102B2E00992DA22D0030B9000030B8000030B7004A
:102B3E000030B600A22DB817B901AD2D0030B90086
:102B4E000030B8000030B7000030B6004808470229
:102B5E000318B22DB32DF92D461FB62DB72DBC2D52
:102B6E008030BA003A08C606BC2D4808BA003A08AA
:102B7E00C9004708BA003A08C8004908BA003A081E
:102B8E00C7003208BA003A08C9003608BA003A0837
:102B9E00B2004908BA003A08B6003308BA003A083B
:102BAE00C9003708BA003A08B3004908BA003A0813
:102BBE00B7003408BA003A08C9003808BA003A0813
:102BCE00B4004908BA003A08B8003508BA003A0805
:102BDE00C9003908BA003A08B5004908BA003A08DF
:102BEE00B900F92DC9014808BA00BB01BA09BB09E1
:102BFE00BA0A0319BB0A47083A07BC003B08031878
:102C0E003B0ABD003D08803AFF0080307F02031D65
:102C1E00122E1A303C02031C152E162E572E83121E
:102C2E0003133508340433043204031D1F2E212EE2
:102C3E000130222E0030BA003A08C9000030B5002B
:102C4E000030B4000030B3000030B2004708BA00C4
:102C5E003A08C800602E572E491C362E372E402EAD
:102C6E004908BA0003103A0C0138BB003B08C900F2
:102C7E00432E0310C90C432E321C462E472E492ECE
:102C8E00C917492E0130BA00350DB50CB40CB30C72
:102C9E00B20CBA0B4B2E0130BA003A08C807572EA9
:102CAE008312031347084802031C5E2E5F2E332E39
:102CBE00602E461B632E642EB32E4808031D682E0D
:102CCE00692E732E0030B5000030B4000030B30012
:102CDE000030B200FF2FFF2F3608B207370803115E
:102CEE000318013E03197C2EB3073808031103188D
:102CFE00013E0319832EB407390803110318013E50
:102D0E0003198A2EB507351C8D2E8E2E7C2F491C4D
:102D1E00912E922E9B2E4908BA0003103A0C0138C0
:102D2E00BB003B08C9009E2E0310C90C9E2E321C00
:102D3E00A12EA22EA42EC917A42E0130BA00350D35
:102D4E00B50CB40CB30CB20CBA0BA62E0130BA00F3
:102D5E003A08C8077C2F7C2F3508803AFF003908C7
:102D6E00803A7F02031DC52E38083402031DC52E7E
:102D7E0037083302031DC52E360832020318C82E3B
:102D8E00C92E2F2FFF30BA00FF30BB00FF30BC0022
:102D9E00FF30BD003608BE003708BF003808C0003F
:102DAE003908C1003209C2003309C3003409C40016
:102DBE003509C500C20A0319C30A0319C40A031947
:102DCE00C50A4208BE0743080318430FEF2EF02E24
:102DDE00BF0744080318440FF52EF62EC00745080A
:102DEE000318450AC1073E08BA073F0803183F0FEC
:102DFE00012F022FBB0740080318400F072F082F83
:102E0E00BC0741080318410ABD073D08B5003C0840
:102E1E00B4003B08B3003A08B2008030BA003A085A
:102E2E00C606C909C90A4908031D1E2F1F2F3D2FAB
:102E3E000130B207003003180130B3070030031819
:102E4E000130B407003003180130B5073D2F3D2F78
:102E5E003608B2023708031C370FB3023808031CBA
:102E6E00380FB4023908031C390FB5023508340483
:102E7E0033043204031D442F452F762F4908031DBA
:102E8E00492F4A2F762F0030B5000030B4000030A5
:102E9E00B3000030B200FF2FFF2F762F0130BA00A3
:102EAE000310B20DB30DB40DB50DBA0B572FC91FCC
:102EBE00612F622F632F3214491C662F672F6A2FE2
:102ECE000314C90D6D2F0310C90D6D2F480803197A
:102EDE00712F722F762F0130C802762F762FB41FE6
:102EEE00792F7A2F552F7C2F7C2FC701C91F802F4A
:102EFE00812F932F49087F390319862F872F8A2F09
:102F0E00C701C70A932F321C8D2F8E2F932FC70107
:102F1E00C70A932F932F932F47080319972F982F94
:102F2E00CE2F0130B207003003180130B307003046
:102F3E0003180130B407003003180130B507351CF3
:102F4E00A92FAA2FCE2F3208BA003308BB0034089F
:102F5E00BC003508BD000130BE003D0DBD0CBC0CE3
:102F6E00BB0CBA0CBE0BB42F3D08B5003C08B40028
:102F7E003B08B3003A08B200480A0319C72FC82FFE
:102F8E00CE2F0130BA003A08C807CE2FCE2F480AEE
:102F9E000319D22FD32FD92F4808031DD72FD82F7F
:102FAE00E92FD92F0030B5000030B4000030B30047
:102FBE000030B2004808031DE52FE62FE92FC601A9
:102FCE00E92FE92F481CEC2FED2FEF2FB417F32F1D
:102FDE007F30BA003A08B4054808BA0003103A0C1C
:102FEE00BB003B08B500C61FFD2FFE2FFF2FB517E8
:022FFE000800C9
:04400E00D4E0FFFFFC
:00000001FF
