:020000040000FA
:060000000A128A110C280F
:10000800FE00030EF1000A08F2000A168A11C32B3B
:100018000A128A110F28F801F901FA018312031351
:10002800ED01EE01EF018313A0308400C4300A16FD
:100038008A117B230A128A1183010A128A11242841
:100048000A168A111B240A128A112A2883120313FA
:100058009F182F28302832289F1432280330F300A5
:100068000030F400831603133B08D100D201510875
:10007800F5005208F6000A168A111D260A128A117E
:10008800730883160313D300530883120313EE0077
:100098000A168A1183230A128A116930F300003084
:1000A800F4000A168A118C230A128A118312031388
:1000B8006E08031D6028612870280030F300F400E2
:1000C8000A168A11A0240A128A11730883160313C8
:1000D800D1005108C1009D2883126E03031D7528A5
:1000E800762885280030F300F4000A168A11A02427
:1000F8000A128A11730883160313D1005108BE002F
:100108009D28023083126E06031D8B288C289D289B
:100118000030F300F4000A168A11A0240A128A118A
:10012800730883160313D1005108FA009D289D28EF
:100138009D28013083160313D1005108BB070A120A
:100148008A1500200A128A110D3083160313D20073
:10015800FB30D100D10BAE28D20BAE280330F30010
:100168000030F400831603133908D100D201510876
:10017800F5005208F6000A168A111D260A128A117D
:10018800730883160313D3005308F9000A168A115B
:1001980083230A128A116130F3000030F4000A1632
:1001A8008A118C230A128A117908031DDC28DD289C
:1001B800EC280030F300F4000A168A11A0240A1271
:1001C8008A11730883160313D1005108F800172900
:1001D8007903031DF028F12800290030F300F4000A
:1001E8000A168A11A0240A128A11730883160313A7
:1001F800D1005108B800172902307906031D0529D6
:10020800062917290030F300F4000A168A11A024E1
:100218000A128A11730883160313D1005108B70014
:10022800172917291729013083160313D1005108FC
:10023800B9070A128A1500200A128A110D3083168E
:100248000313D200FB30D100D10B2829D20B282967
:100258008316031336080139D1005108B5000A1670
:100268008A1183230A128A117130F3000030F400D6
:100278000A168A118C230A128A1183160313350869
:10028800031D4729482957290030F300F4000A16AE
:100298008A11A0240A128A11730883160313D10045
:1002A8005108B4006C293503031D5B295C296C29AE
:1002B8000030F300F4000A168A11A0240A128A11E9
:1002C800730883160313D1005108B3006C296C29F5
:1002D8000130D1005108B6070A128A1500200A1207
:1002E8008A110D3083160313D200FB30D100D10BD5
:1002F8007B29D20B7B29433083120313E3007F3021
:10030800E2000030E1000030E0004030C900A030D9
:10031800C8000030C7000030C60083160313410828
:10032800D100D201D301D4015408F6005308F500D6
:100338005208F4005108F30000300A128A15092007
:100348000A128A11760883120313CD007508CC00AF
:100358007408CB007308CA000A128A158B240A1283
:100368008A11831203134908E7004808E600470882
:10037800E5004608E4000A128A111E250A128A11AD
:1003880083120313630883160313AF008312031346
:10039800620883160313AE008312031361088316E1
:1003A8000313AD0083120313600883160313AC0014
:1003B8003C3083120313E3002330E200D730E1001E
:1003C8000A30E000831603132F0883120313E70093
:1003D800831603132E0883120313E60083160313F0
:1003E8002D0883120313E500831603132C088312C8
:1003F8000313E4000A128A111E250A128A118312B5
:100408000313630883160313A700831203136208F8
:1004180083160313A60083120313610883160313BC
:10042800A50083120313600883160313A40027088A
:10043800F6002608F5002508F4002408F3000A163B
:100448008A1164270A128A11730883160313D100CC
:10045800510883120313EF004230C900C830C800A6
:100468000030C7000030C600831603132708831224
:100478000313B10083160313260883120313B00075
:1004880083160313250883120313AF00831603137F
:10049800240883120313AE006F0883160313D100D8
:1004A800D201D301D4015408F6005308F5005208CC
:1004B800F4005108F30001300A128A1509200A12C3
:1004C8008A11760883120313AD007508AC0074080E
:1004D800AB007308AA000A168A11A5230A128A110A
:1004E800831203132D08B5002C08B4002B08B300A1
:1004F8002A08B2000A128A15CF210A128A11831219
:1005080003133108CD003008CC002F08CB002E088B
:10051800CA000A128A158B240A128A11831203133D
:10052800490883160313AB00831203134808831684
:100538000313AA0083120313470883160313A900A1
:1005480083120313460883160313A8002B08F6002A
:100558002A08F5002908F4002808F3000A168A1169
:1005680064270A128A11730883160313D1005108ED
:10057800BF0083120313851CC22AC32AC72A831605
:100588000313B201B20A83128518CB2ACC2AF72AA0
:100598008316031332080319D22AD32AF72A013003
:1005A800D100510883120313ED070330F300003024
:1005B800F4006D0883160313D100D2015108F50029
:1005C8005208F6000A168A111D260A128A117308A3
:1005D80083160313D300530883120313ED00831605
:1005E8000313B201F72A8312051DFB2AFC2A002BEC
:1005F80083160313B101B10A83120519042B052BC5
:10060800172B83160313310803190B2B0C2B172BED
:100618000130D1005108B00730080139D100510824
:10062800B000B101172B780803191B2B1C2B1F2BAB
:1006380083120514222B83120510222B3C306F02E3
:10064800031C272B282B2A2B05162C2B05122C2BA9
:10065800831603133008031D322B332B3B2CF60172
:10066800F60A01300A168A11FC230A128A1183122B
:1006780003136D08031D412B422B602B8530F500B9
:100688008030F6000A168A1188250A128A11831208
:1006980003136F080A168A11DE230A128A11B03072
:1006A8000A168A11B4230A128A1143300A168A11CB
:1006B800B4230A128A11A82B831203136D03031D96
:1006C800662B672BA82B8B30F5008030F6000A16B6
:1006D8008A1188250A128A11FF3083120313A20097
:1006E8000030A300831603133808D100D201510843
:1006F800F3005208F4006430F5000030F6000A16E2
:100708008A1172240A128A11740883120313A5002D
:100718007308A4000A168A11F1260A128A11831294
:10072800031322080A168A11DE230A128A112030BE
:100738000A168A11B4230A128A1125300A168A1158
:10074800B4230A128A11A82B5630F5008030F6001F
:100758000A168A1188250A128A11F601F60A023049
:100768000A168A11FC230A128A11831203136D08D0
:10077800031DBF2BC02BE92B7630F5008030F60027
:100788000A168A1188250A128A117A080319CD2BAC
:10079800CE2BD82B2130F5008030F6000A168A11AE
:1007A80088250A128A11E22B1230F5008030F600F3
:1007B8000A168A1188250A128A11E22B20300A1695
:1007C8008A11B4230A128A11312C831203136D0380
:1007D800031DEF2BF02B0C2C83160313370803197A
:1007E800F62BF72B012C3C30F5008030F6000A166A
:1007F8008A1188250A128A11312C3830F500803088
:10080800F6000A168A1188250A128A11312C312C11
:100818000230831203136D06031D132C142C312C84
:1008280083160313330803191A2C1B2C252C473065
:10083800F5008030F6000A168A1188250A128A11F6
:10084800312C2930F5008030F6000A168A118825E7
:100858000A128A11312C312C312C5630F500803097
:10086800F6000A168A1188250A128A112A28F60122
:10087800F60A01300A168A11FC230A128A11831219
:1008880003136D08031D492C4A2C732C7630F50090
:100898008030F6000A168A1188250A128A117A0809
:1008A8000319572C582C622C2130F5008030F600A3
:1008B8000A168A1188250A128A116C2C1230F50042
:1008C8008030F6000A168A1188250A128A116C2CC3
:1008D80020300A168A11B4230A128A11972C83121F
:1008E80003136D03031D792C7A2C972C831603139D
:1008F80037080319802C812C8B2C3C30F500803074
:10090800F6000A168A1188250A128A11972C38309F
:10091800F5008030F6000A168A1188250A128A1115
:10092800972C972C972CF601F60A02300A168A1192
:10093800FC230A128A11831203136D08031DA52CC8
:10094800A62CD12C6E30F5008030F6000A168A11DC
:1009580088250A128A11831603133E080319B52C39
:10096800B62CC02C7E30F5008030F6000A168A11AD
:1009780088250A128A11CA2C6230F5008030F600E8
:100988000A168A1188250A128A11CA2C20300A16DA
:100998008A11B4230A128A112A28831203136D03B9
:1009A800031DD72CD82CF22C78080319DC2CDD2C4D
:1009B800E72C1A30F5008030F6000A168A118825CF
:1009C8000A128A112A280B30F5008030F6000A1620
:1009D8008A1188250A128A112A282A2802308312A5
:1009E80003136D06031DF92CFA2C2A28831603130A
:1009F80033080319002D012D0B2D4730F5008030E9
:100A0800F6000A168A1188250A128A112A2829301E
:100A1800F5008030F6000A168A1188250A128A1114
:100A28002A282A282A282A282A282A282A280A1264
:100A38008A110C288312031367088039E8006808B4
:100A480083160313C800831203136708E8006807B6
:100A5800E900690883160313CF0083120313E61F06
:100A6800362D372D3B2D831603134F143B2D83163C
:100A780003134F080319412D422D562D4F0A031D0C
:100A8800462D472D522D003083120313E700003006
:100A9800E6000030E5000030E400522D8312E6172E
:100AA800E701602D00308312E7000030E6000030D7
:100AB800E5000030E400602D63088039E80068082C
:100AC80083160313C806831203136308E800680734
:100AD800E900690883160313D00083120313E21F89
:100AE800762D772D7B2D8316031350147B2D8316BB
:100AF800031350080319812D822D962D500A031DCA
:100B0800862D872D922D003083120313E3000030C9
:100B1800E2000030E1000030E000922D8312E2177D
:100B2800E3019F2D00308312E3000030E200003023
:100B3800E1000030E0006308620461046004031D02
:100B4800A62DA72DC52D0030E7000030E6000030A7
:100B5800E5000030E4008030E6047F30E7048316C7
:100B68000313480883120313E8006808E7046708BA
:100B7800E3006608E2006508E1006408E000EB2F86
:100B8800EB2F831603134F08031DCB2DCC2DE02D1F
:100B9800003083120313E7000030E6000030E50060
:100BA8000030E4006708E3006608E2006508E10039
:100BB8006408E000EB2FEB2F831603135008831211
:100BC8000313E800E901E809E909E80A0319E90A51
:100BD800831603134F08831203136807EA00690892
:100BE8000318690AEB006A087F3E83160313C900DD
:100BF800831203136B080318013E003E8316031388
:100C0800CA0083120313670883160313C7008312ED
:100C18000313660883160313C600831203136508BB
:100C280083160313C5008312031364088316031382
:100C3800C400003083120313E7000030E6000030E0
:100C4800E5000030E400003083160313CE000030C6
:100C5800CD000030CC000030CB00D001BD2E5008B4
:100C68000319372E382E692E013083120313E8003A
:100C7800031083160313C40DC50DC60DC70D8312CB
:100C88000313E80B3C2E0130E8000310E40DE50DDA
:100C9800E60DE70DE80B492E83160313CE1F552EDC
:100CA800562E5A2E8312031364145A2E01308312BF
:100CB800E800031083160313CB0DCC0DCD0DCE0D1C
:100CC80083120313E80B5D2E692E831263088316C3
:100CD80003134702031D862E83120313620883162B
:100CE80003134602031D862E83120313610883161D
:100CF80003134502031D862E83120313600883160F
:100D080003134402031C892E8A2EB42E4E17831215
:100D18000313600883160313C402831203136108C4
:100D2800031C610F982E9B2E83160313C502831292
:100D380003136208031C620FA22EA52E8316031349
:100D4800C602831203136308031C630FAC2EAF2E75
:100D580083160313C7028312031383160313B42ED7
:100D6800013083120313E800680883160313D007C1
:100D7800BD2E1A305002031CC22EC32E332EC42E91
:100D880047084604450444040319CB2ECC2EFA2EFA
:100D98004B14FA2EFA2E01308312E8000310E40DEA
:100DA800E50DE60DE70DE80BD22E83160313CE1FD3
:100DB800DE2EDF2EE32E831203136414E32E01309C
:100DC8008312E800031083160313CB0DCC0DCD0D51
:100DD800CE0D83120313E80BE62EFF3083160313A0
:100DE800C9070318CA0AFF30CA07FA2E8312031369
:100DF800E61FFF2E002FCF2E012F83160313D001DD
:100E0800CE1F072F082F3A2FFF304B0583120313ED
:100E1800E800FF30831603134C0583120313E9001F
:100E2800FF30831603134D0583120313EA007F3046
:100E3800831603134E0583120313EB006B086A0431
:100E4800690468040319292F2A2F2F2F83160313E7
:100E5800D001D00A3A2F641C322F332F3A2F831631
:100E68000313D001D00A3A2F3A2F3A2F83160313CF
:100E780050080319402F412F782F01308312031394
:100E8800E407003003180130E5070030031801308B
:100E9800E607003003180130E707671C542F552F69
:100EA800782F6408E8006508E9006608EA00670822
:100EB800EB000130EC006B0DEB0CEA0CE90CE80CD4
:100EC800EC0B5F2F6B08E7006A08E6006908E5008D
:100ED8006808E400013083160313C9070318CA0A17
:100EE8000030CA07782F782F831603134A08803AF0
:100EF800FF0080307F02031D832FFF304902031C4F
:100F0800862F872F982FFF3083160313C9000030D0
:100F1800CA00003083120313E7000030E6000030F7
:100F2800E5000030E400982F831603134A08803A3E
:100F3800FF0080307F02031DA32F013049020318F0
:100F4800A62FA72FB82F83160313C901CA01003093
:100F580083120313E7000030E6000030E50000309C
:100F6800E40083160313C801831603134908831288
:100F78000313E800680883160313CF004F1CC52F1E
:100F8800C62FCA2F83120313E617CF2F7F30831281
:100F9800E8006808E605831603134F088312031355
:100FA800E8000310680CE9006908E70083160313DA
:100FB800480883120313E8006808E7046708E30099
:100FC8006608E2006508E1006408E000EB2F08000D
:100FD800F50083120313081075088600881406307C
:100FE800F4003030F300F30BF72FF40BF72F000069
:100FF80083120313881008000A168A1196230A120E
:101008008A15831603131115080083120313A4000D
:1010180024080319102811282528F61F1428152834
:1010280025287309A6007409A7007509A800760980
:10103800A900A60A0319A70A0319A80A0319A90AE5
:101048002D287608A9007508A8007408A700730859
:10105800A6007608750474047304031D3428352823
:101068003F280030F6000030F5000030F400003072
:10107800F300CC28CC289630A0002008A5005228E0
:101088000130A0002008A50701300310A90CA80C06
:10109800A70CA60CFF3E031D49285228FE3029053F
:1010A800031D572858284428752875280130A000A2
:1010B8002008A5070130A607003003180130A7074C
:1010C800003003180130A807003003180130A907C1
:1010D80001300310A90CA80CA70CA60CFF3E031D99
:1010E8006D28FF302905031D7A287B285A2889286E
:1010F80089280130A5020130A0000310A60DA70D14
:10110800A80DA90DA00B81288928A81B8C288D283B
:101118009428023025020318922893287D289428C1
:10112800251897289828A028FF30A605FF30A7057E
:101138007F30A805FF30A9050310A50C2508A000DD
:10114800A101A201A30118300310A00DA10DA20D49
:10115800A30DFF3E031DA8282008A6042108A70404
:101168002208A8042308A90424080319BC28BD28B8
:10117800C328F61FC028C128C328A917C3282908CF
:10118800F6002808F5002708F4002608F300CC2804
:10119800080083120313B4002A30AC002C08AF00F7
:1011A800B529253035060319DA28DB28E72835085C
:1011B800AC00340884002C08831380000130AC0094
:1011C8002C08B407B529B001EE28C9290B290B2929
:1011D800B5290B290130A907FF30290784000A1611
:1011E8008A110A200A128A15B500AC00AD012D0833
:1011F800003A03190029B5292C08003A0319C9290E
:10120800643A03190B290D3A03190B29B5292F083C
:10121800840083130008B200840A0008B300023077
:10122800AC002C08AF07B31F1A291B292529033046
:10123800AC002C08B004B209B309B20A0319B30A06
:101248002529B501B50A05303506031D2C292D2998
:101258002F29572957293508AC002C07013E84004F
:101268000A168A110A200A128A15AD000A168A116E
:101278000A200A128A15AE002E083302031D4629D9
:101288002D083202031849294A294C295729572978
:101298000130AC002C08B50705303506031D55296B
:1012A80056292F2957293008033903195C295D2944
:1012B80069292D30AC00340884002C088313800081
:1012C8000130AC002C08B40769293508AC002C089B
:1012D800B100AA290A30A3000030A4003108AC00EC
:1012E8002C07013E84000A168A110A200A128A1560
:1012F800F3000A168A110A200A128A15F400330824
:10130800F6003208F5000A168A11D0250A128A1545
:10131800740883120313A6007308A5000A168A111D
:1013280045250A128A15831203132308303EAD009F
:101338002D08B5003508AC00340884002C08831348
:1013480080000130AC002C08B407AA29FF30AC009B
:101358002C08B107310A031DB229B3296E29B52912
:10136800B5290130A907FF30290784000A168A1118
:101378000A200A128A15AC002C08B5003508031D8E
:10138800C629C729D528C929C9293408840083133F
:101398008001CE2908008312031331088039B60072
:1013A8003608C2003108B6003607B7003708C4004F
:1013B800B01FDF29E029E2294414E229440803196F
:1013C800E629E729F829440A031DEB29EC29F52920
:1013D8000030B1000030B0000030AF000030AE0087
:1013E800F529B017B101012A0030B1000030B00072
:1013F8000030AF000030AE00012A35088039B60051
:101408003608C3004308420603190B2A0C2A0E2A81
:1014180042170E2A3508B6003607B7003708C3004A
:10142800B41F172A182A1A2A43141A2A4308031918
:101438001E2A1F2A302A430A031D232A242A2D2A5A
:101448000030B5000030B4000030B3000030B20006
:101458002D2AB417B501382A0030B5000030B40081
:101468000030B3000030B2004408430203183D2A9C
:101478003E2A842A421F412A422A472A8030B6003F
:101488003608C206472A4408B6003608C50043088D
:10149800B6003608C4004508B6003608C3002E0852
:1014A800B6003608C5003208B6003608AE00450852
:1014B800B6003608B2002F08B6003608C500330853
:1014C800B6003608AF004508B6003608B300300845
:1014D800B6003608C5003408B6003608B00045081E
:1014E800B6003608B4003108B6003608C50035081D
:1014F800B6003608B1004508B6003608B500842A9B
:10150800C5014408B600B701B609B709B60A0319F8
:10151800B70A43083607B80037080318370AB9006E
:101528003908803AFF0080307F02031D9D2A1A3057
:101538003802031CA02AA12AE22A831203133108C5
:1015480030042F042E04031DAA2AAC2A0130AD2A28
:101558000030B6003608C5000030B1000030B000D9
:101568000030AF000030AE004308B6003608C400B3
:10157800EB2AE22A451CC12AC22ACB2A4508B60012
:101588000310360C0138B7003708C500CE2A0310FF
:10159800C50CCE2A2E1CD12AD22AD42AC517D42A61
:1015A8000130B600310DB10CB00CAF0CAE0CB60B5F
:1015B800D62A0130B6003608C407E22A831203137C
:1015C80043084402031CE92AEA2ABE2AEB2A421BE2
:1015D800EE2AEF2A3E2B4408031DF32AF42AFE2A9A
:1015E8000030B1000030B0000030AF000030AE0075
:1015F8008A2C8A2C3208AE07330803110318013EDF
:101608000319072BAF07340803110318013E031908
:101618000E2BB007350803110318013E0319152BCB
:10162800B107311C182B192B072C451C1C2B1D2B03
:10163800262B4508B6000310360C0138B7003708CA
:10164800C500292B0310C50C292B2E1C2C2B2D2B48
:101658002F2BC5172F2B0130B600310DB10CB00C54
:10166800AF0CAE0CB60B312B0130B6003608C407F0
:10167800072C072C3108803AFF003508803A7F0292
:10168800031D502B34083002031D502B33082F0242
:10169800031D502B32082E020318532B542BBA2B40
:1016A800FF30B600FF30B700FF30B800FF30B90098
:1016B8003208BA003308BB003408BC003508BD0046
:1016C8002E09BE002F09BF003009C0003109C10032
:1016D800BE0A0319BF0A0319C00A0319C10A3E0842
:1016E800BA073F0803183F0F7A2B7B2BBB0740082C
:1016F8000318400F802B812BBC0741080318410AAF
:10170800BD073A08B6073B0803183B0F8C2B8D2BF7
:10171800B7073C0803183C0F922B932BB8073D08DA
:1017280003183D0AB9073908B1003808B00037086E
:10173800AF003608AE008030B6003608C206C509CC
:10174800C50A4508031DA92BAA2BC82B0130AE07D3
:10175800003003180130AF07003003180130B0071C
:10176800003003180130B107C82BC82B3208AE026D
:101778003308031C330FAF023408031C340FB002C4
:101788003508031C350FB102310830042F042E042C
:10179800031DCF2BD02B012C4508031DD42BD52B93
:1017A800012C0030B1000030B0000030AF00003034
:1017B800AE008A2C8A2C012C0130B6000310AE0D25
:1017C800AF0DB00DB10DB60BE22BC51FEC2BED2BF9
:1017D800EE2B2E14451CF12BF22BF52B0314C50D03
:1017E800F82B0310C50DF82B44080319FC2BFD2B0F
:1017F800012C0130C402012C012CB01F042C052C33
:10180800E02B072C072CC301C51F0B2C0C2C1E2CFE
:1018180045087F390319112C122C152CC301C30A52
:101828001E2C2E1C182C192C1E2CC301C30A1E2C6E
:101838001E2C1E2C43080319222C232C592C013052
:10184800AE07003003180130AF070030031801302D
:10185800B007003003180130B107311C342C352C87
:10186800592C2E08B6002F08B7003008B8003108E8
:10187800B9000130BA00390DB90CB80CB70CB60C68
:10188800BA0B3F2C3908B1003808B0003708AF0050
:101898003608AE00440A0319522C532C592C013037
:1018A800B6003608C407592C592C440A03195D2C74
:1018B8005E2C642C4408031D622C632C742C642C4D
:1018C8000030B1000030B0000030AF000030AE0092
:1018D8004408031D702C712C742CC201742C742CB8
:1018E800441C772C782C7A2CB0177E2C7F30B600CD
:1018F8003608B0054408B6000310360CB7003708A0
:10190800B100C21F882C892C8A2CB11708008312B9
:10191800031349088039CE004E08D3004908CE0089
:101928004E07CF004F08D900C81F9B2C9C2C9E2C1B
:1019380059149E2C59080319A22CA32CB32C590A0C
:10194800031DA72CA82CB12C0030C9000030C800FA
:101958000030C7000030C600B12CC817BC2C0030BE
:10196800C9000030C8000030C7000030C600BC2CD9
:101978004D088039CE004E08D3064D08CE004E07DC
:10198800CF004F08D800CC1FCA2CCB2CCD2C581414
:10199800CD2C58080319D12CD22CE22C580A031D3F
:1019A800D62CD72CE02C0030CD000030CC000030F5
:1019B800CB000030CA00E02CCC17EB2C0030CD0057
:1019C8000030CC000030CB000030CA00EB2C5808A7
:1019D8000319EF2CF02CF62C5908031DF42CF52CC8
:1019E800002DF62C0030C9000030C8000030C700B8
:1019F8000030C600FF2FFF2F4608CE004E08F30028
:101A08004C080A168A1146240A128A157408831289
:101A18000313DF007308DE005E08CE00CF01D0019B
:101A2800D1015108D7005008D6004F08D5004E08FC
:101A3800D4005F08CE00CF01D001D1015108DD00EC
:101A48005008DC004F08DB004E08DA004708CE00DB
:101A58004E08F3004B080A168A1146240A128A1502
:101A6800740883120313DF007308DE005E08CE00DB
:101A7800CF01D001D1014E08D4074F080311031834
:101A8800013E0319482DD507500803110318013EDC
:101A980003194F2DD607510803110318013E0319E6
:101AA800562DD7075F08CE00CF01D001D1014E08CF
:101AB800DA074F0803110318013E0319642DDB07E9
:101AC800500803110318013E03196B2DDC07510858
:101AD80003110318013E0319722DDD074808CE00D3
:101AE8004E08F3004A080A168A1146240A128A1573
:101AF800740883120313DF007308DE005E08CE004B
:101B0800CF01D001D1014E08D4074F0803110318A3
:101B1800013E0319902DD507500803110318013E03
:101B28000319972DD607510803110318013E03190D
:101B38009E2DD7075F08CE00CF01D001D1014E08F6
:101B4800DA074F0803110318013E0319AC2DDB0710
:101B5800500803110318013E0319B32DDC0751087F
:101B680003110318013E0319BA2DDD070830CE0012
:101B78000310D40DD50DD60DD70DCE0BBC2D4708AF
:101B8800CE004E08F3004A080A168A1146240A12A3
:101B98008A15740883120313DF007308DE005E08D9
:101BA800CE005F08CF00D001D1014E08D4074F08FE
:101BB80003110318013E0319E22DD507500803113C
:101BC8000318013E0319E92DD6075108031103181C
:101BD800013E0319F02DD7074608CE004E08F30042
:101BE8004B080A168A1146240A128A1574088312A9
:101BF8000313DF007308DE005E08CE005F08CF0025
:101C0800D001D1014E08D4074F0803110318013E33
:101C180003190F2ED507500803110318013E0319A5
:101C2800162ED607510803110318013E03191D2E5D
:101C3800D7070830CE000310D40DD50DD60DD70D1B
:101C4800CE0B1F2E4608CE004E08F3004A080A168F
:101C58008A1146240A128A15740883120313DF00B6
:101C68007308DE005E08CE005F08CF00D001D10106
:101C78004E08D4074F0803110318013E0319452ED7
:101C8800D507500803110318013E03194C2ED60737
:101C9800510803110318013E0319532ED7074708AB
:101CA800CE004E08F3004C080A168A1146240A1280
:101CB8008A15740883120313DF007308DE005E08B8
:101CC800CE005F08CF00D001D1014E08DA074F08D7
:101CD80003110318013E0319722EDB075008031184
:101CE8000318013E0319792EDC0751080311031864
:101CF800013E0319802EDD074808CE004E08F30088
:101D08004B080A168A1146240A128A157408831287
:101D18000313DF007308DE005E08CE005F08CF0003
:101D2800D001D1014E08DA074F0803110318013E0C
:101D380003199F2EDB07500803110318013E0319EE
:101D4800A62EDC07510803110318013E0319AD2E16
:101D5800DD074808CE004E08F3004C080A168A1121
:101D680046240A128A15740883120313DF007308C5
:101D7800DE005E08CE005F08CF00D001D101083038
:101D88000310CE0DCF0DD00DD10DFF3E031DC42E77
:101D98004E08DA074F0803110318013E0319D52E20
:101DA800DB07500803110318013E0319DC2EDC077A
:101DB800510803110318013E0319E32EDD075408E7
:101DC800CE005508CF005608D0005708D10018306B
:101DD8000310D10CD00CCF0CCE0CFF3E031DEC2E03
:101DE8004E08DA074F0803110318013E0319FD2EA8
:101DF800DB07500803110318013E0319042FDC0701
:101E0800510803110318013E03190B2FDD07083091
:101E1800CE000310D40DD50DD60DD70DCE0B0D2F3A
:101E280059085807CE00CF01CF0D4E08823EDE007C
:101E38004F080318013EFF3EDF00412F0130CE005E
:101E48000310DA0DDB0DDC0DDD0DCE0B242FD71FB3
:101E58002E2F2F2F312F5A14312F0130CE0003107F
:101E6800D40DD50DD60DD70DCE0B332FFF30DE0791
:101E78000318DF0AFF30DF07412FDC1F442F452FEF
:101E8800222F462FD801D71F4A2F4B2F6B2FFF30F9
:101E98005405CE00FF305505CF00FF305605D00061
:101EA8007F305705D100510850044F044E040319E0
:101EB8005E2F5F2F622FD801D80A6B2F5A1C652F0F
:101EC800662F6B2FD801D80A6B2F6B2F6B2F5808F2
:101ED80003196F2F702FA32F0130DA070030031872
:101EE8000130DB07003003180130DC07003003182D
:101EF8000130DD075D1C812F822FA32F5A08CE00E9
:101F08005B08CF005C08D0005D08D1000130D2002A
:101F1800510DD10CD00CCF0CCE0CD20B8C2F5108FC
:101F2800DD005008DC004F08DB004E08DA00013005
:101F3800DE070318DF0A0030DF07A32FA32F5F088F
:101F4800803AFF0080307F02031DAC2FFF305E0215
:101F5800031CAF2FB02FBB2F7F3083120313DD007C
:101F68008030DC000030DB000030DA00F22F831212
:101F780003135F08803AFF0080307F02031DC62FDD
:101F880001305E020318C92FCA2FD62F00308312E2
:101F98000313DD000030DC000030DB000030DA0025
:101FA800D301F22F831203135E08CE004E08D90026
:101FB800FF30DA05FF30DB057F30DC050030DD055A
:101FC800591CE72FE82FEA2FDC17EA2F5908CE0013
:101FD80003104E0CCF004F08DD00F22F5308CE003F
:101FE8004E08DD045D08C9005C08C8005B08C7002E
:101FF8005A08C600FF2F0800FF1B0A2883137F1802
:1020080083170008840A0319FF0A080010308A00A1
:102018000408840A82070034013400340A34003486
:1020280064340034E83403341034273450345534DD
:1020380045345234543441342034433445345234D2
:1020480052344134443441340034503455344534E6
:1020580052345434413420344134423449344534C0
:1020680052345434413400344734413452344134C6
:10207800473445342034433445345234523441349F
:1020880044344F340034533449344E3420344D34BE
:102098004F34563449344D34493445344E3454342D
:1020A8004F34003447344134523441344734453492
:1020B80020344134423449344534523454344F3452
:1020C8000034203420342034203420342034203488
:1020D80020342034203420340034443445345334FC
:1020E800433441345434493456344134443441340B
:1020F800003441344C34413452344D34413420346A
:102108000034503455344534523454344134203436
:10211800003441344334543449345634413400345F
:10212800543445344D345034203400344C34553410
:0C2138005A342034003425346434003460
:1026DE00831203131E08732B080001300A128A118D
:1026EE00EC270A168A11080064008001840A040689
:1026FE000319003404067C2B0A168A1196230A1637
:10270E008A1183160313111408000A168A119623D0
:10271E000A168A1173088312031393000800972B6D
:10272E008316031314199C2B9D2B972B11081F39FD
:10273E00031DA22BA32B972BA42B0800831203138C
:10274E002D082C042B042A040319AE2BAF2BB22B0D
:10275E008030AD06B22BB32B0800F40083120313A6
:10276E0008147408860088140D30F300F30BBD2B8B
:10277E008312031388100800831203139F18C82BAB
:10278E00C92BD72B0A168A116F230A168A11F0004D
:10279E00700883160313C000831203130C13D72B78
:1027AE0072088A00710E8300FE0E7E0E09008312DF
:1027BE000313BD009030B6003608A9003D08B700DF
:1027CE00B8013708AA003808AB0039300A128A154A
:1027DE00CD200A168A113930F5000030F6000A169F
:1027EE008A1188250A168A11080083120313A00085
:1027FE002003031D032C042C0C2C76087F3EF700BF
:10280E00770883160313C300142C7608BF3EF70017
:10281E00770883160313C300142C43080A128A1177
:10282E00EC270A168A1108008316031788018901FE
:10283E008316031386018801831203138601880110
:10284E000030B0000130AF008630AE00A030AD00D9
:10285E000A168A11D1240A168A110A168A110B2514
:10286E000A168A110A168A1174230A168A118316F9
:10287E000313851405150510051285120800831221
:10288E000313A400A001A1017308F500F601750859
:10289E00A2007608A300532C241C562C572C5D2C1A
:1028AE002208A0070318A10A2308A107013003106C
:1028BE00A20DA30DFF3E031D5E2C0310A40C2408D5
:1028CE00031D6A2C6B2C532C6C2C2108F400200851
:1028DE00F300712C080083120313A001A101772CC1
:1028EE00731C7A2C7B2C832C750883120313A00780
:1028FE000318A10A7608A10701300310F50DF60D95
:10290E00FF3E031D842C01300310F40CF30CFF3E2C
:10291E00031D8B2C73087404031D962C972C772C97
:10292E00982C831203132108F4002008F3009F2C27
:10293E0008000A168A1196230A168A1183160313A3
:10294E0091150A168A1196230A168A1183120313F9
:10295E001308F500F6017508A0007608A1000A1606
:10296E008A1196230A168A1173037404031DC02C50
:10297E00C12CC52C831603139112C82C8316031376
:10298E0091161116831203132108F4002008F30088
:10299E00D02C0800283083120313940083160313DF
:1029AE009101831203132D08F4002E08F5002F0851
:1029BE00F6003008F70002300310F40DF50DF60D99
:1029CE00F70DFF3E031DE32C7708A3007608A20047
:1029DE007508A1007408A0000030A7003D30A600C5
:1029EE000930A5000030A4000A168A1182260A16A4
:1029FE008A11831203132008FF3E831603139300DC
:102A0E0094018715071608001430F7007930F60088
:102A1E00F60B0F2DF70B0F2D142D30300A128A11D5
:102A2E00EC270A168A1130300A128A11EC270A1680
:102A3E008A1130300A128A11EC270A168A113830A0
:102A4E000A128A11EC270A168A1110300A128A11FC
:102A5E00EC270A168A1101300A128A11EC270A167F
:102A6E008A1106300A128A11EC270A168A110E30C4
:102A7E000A128A11EC270A168A1108008312031310
:102A8E002308240403194C2D4D2D822DA801A80ACC
:102A9E005C2D01300310A30DA40DFF3E031D512D1F
:102AAE000130A7002708A8075C2DA41F5F2D602DFD
:102ABE00502D622D622D24082602031D682D230839
:102ACE002502031C6B2D6C2D732D2308A5022408E3
:102ADE00031CA603A602732D01300310A40CA30C35
:102AEE00FF3E031D742D0130A802031D7F2D802D86
:102AFE00622D822D822D2608A4002508A300872D85
:102B0E00080083120313A301A401B22D2308750735
:102B1E00A1007608A0000318A00AA31F972DA003FA
:102B2E00831203132008A2002208FF00210884004C
:102B3E000A168A1100200A168A110A168A11B4235F
:102B4E000A168A11013083120313A3070318A40A6D
:102B5E000030A407B22D23087507A1007608A00047
:102B6E000318A00AA31FBC2DA00383120313200871
:102B7E00A2002208FF00210884000A168A110020F4
:102B8E000A168A11003A031DCD2DCE2D8D2DCF2D77
:102B9E00080083120313A101A20173087404031920
:102BAE00D92DDA2D172EA001A00AE92D0130031020
:102BBE00F30DF40DFF3E031DDE2D0130F7007708F7
:102BCE00A007E92DF41FEC2DED2DDD2DEF2DEF2DB2
:102BDE0001300310A10DA20DFF3E031DF02D740850
:102BEE007602031DFC2D73087502031CFF2D002EAB
:102BFE00082E7308F5027408031CF603F60221145E
:102C0E00082E01300310F40CF30CFF3E031D092EA9
:102C1E000130A002031D142E152EEF2D172E172E88
:102C2E002208F4002108F3001C2E0800831203135F
:102C3E00A101F61F232E242E2C2EF509F609F50AD6
:102C4E000319F60AA101A10A2C2EF41F2F2E302EE5
:102C5E00362EF309F409F30A0319F40A362E730813
:102C6E00740403193B2E3C2E712EA001A00A4B2E8C
:102C7E0001300310F30DF40DFF3E031D402E013005
:102C8E00F7007708A0074B2EF41F4E2E4F2E3F2E27
:102C9E00512E512E74087602031D572E730875029D
:102CAE00031C5A2E5B2E622E7308F5027408031C49
:102CBE00F603F602622E01300310F40CF30CFF3E05
:102CCE00031D632E0130A002031D6E2E6F2E512E9A
:102CDE00712E712E21080319752E762E7C2EF50974
:102CEE00F609F50A0319F60A7C2E7608F400750823
:102CFE00F300812E0800003083120313AB00003066
:102D0E00AA000030A9000030A800230822042104E4
:102D1E0020040319932E942EE72EAC01AC0AA52E97
:102D2E000130F3000310A00DA10DA20DA30DF30BA6
:102D3E00992E0130F3007308AC07A52EA31FA82E01
:102D4E00A92E972EAB2EAB2E0130F3000310A80D3B
:102D5E00A90DAA0DAB0DF30BAD2E23082702031DF3
:102D6E00C22E22082602031DC22E21082502031D93
:102D7E00C22E20082402031CC52EC62ED62E2008D5
:102D8E00A4022108031C210FA5022208031C220FF6
:102D9E00A6022308031C230FA7022814D62E0130E7
:102DAE000310A30CA20CA10CA00CFF3E031DD72EEA
:102DBE000130AC02031DE42EE52EAB2EE72EE72EDE
:102DCE002B08A3002A08A2002908A1002808A000A9
:102DDE00F02E080083120313A701A31FF72EF82E5F
:102DEE00002FA209A309A20A0319A30AA701A70A81
:102DFE00002FA51F032F042F0E2FA409A509A40A27
:102E0E000319A50A0130F7007708A7060E2FA801AF
:102E1E00A901220823040319152F162F532FA601DB
:102E2E00A60A252F01300310A20DA30DFF3E031D90
:102E3E001A2F0130F7007708A607252FA31F282F7A
:102E4E00292F192F2B2F2B2F01300310A80DA90D71
:102E5E00FF3E031D2C2F23082502031D382F2208A9
:102E6E002402031C3B2F3C2F442F2208A4022308CC
:102E7E00031CA503A5022814442F01300310A30C34
:102E8E00A20CFF3E031D452F0130A602031D502F3D
:102E9E00512F2B2F532F532F27080319572F582FEE
:102EAE005E2FA809A909A80A0319A90A5E2F2908E5
:102EBE00A3002808A200632F0800730883120313CF
:102ECE00A0007408A1007508A2007608A3000310E4
:102EDE00220D230DA4002408A6002608031D782F1A
:102EEE00792F832F0030F6000030F5000030F4000B
:102EFE000030F300FF2FFF2F7308A0007408A1000D
:102F0E007508A2007608A3001F300310A30CA20CB4
:102F1E00A10CA00CFF3E031D8C2F2008A40024083A
:102F2E00A500F517FF30F305FF30F405FF30F5056A
:102F3E000030F6059630A602A61FA62FA72FCC2F7F
:102F4E002608803A973E0318AD2FAE2FB92F0030CA
:102F5E00F6000030F5000030F4000030F300FF2FD3
:102F6E00FF2FB92F01300310F60CF50CF40CF30CF7
:102F7E00FF3E031DBA2F0130A0002008A607031D37
:102F8E00C92FCA2FB92FEF2FEF2F20302602031C87
:102F9E00D12FD22FE82F0030F6000030F500003090
:102FAE00F4000030F300FF2FFF2FE82F0130A000B8
:102FBE000310F30DF40DF50DF60DA00BDF2F013000
:102FCE00A6022608031DEC2FED2FDD2FEF2FEF2F7E
:102FDE0025080319F32FF42FFF2FF309F409F50930
:102FEE00F609F30A0319F40A0319F50A0319F60A86
:022FFE000800C9
:04400E00D4E0FFFFFC
:00000001FF
