:020000040000FA
:100000000A128A11EB2F01300A128A15DD220A1218
:100010008A110800831603178801890183160313C8
:100020008601880183120313860188010030A30032
:100030000130A2008630A100A030A0000A128A156B
:1000400085230A128A110A128A15BD230A128A11FF
:100050000A128A1103200A128A11F301F30A0130ED
:100060000A128A15F1220A128A110E30F20080302B
:10007000F3000A128A1538240A128A1107308312F3
:100080000313A8002808F30001300A128A15F12290
:100090000A128A111130F2008030F3000A128A1518
:1000A00038240A128A110D3083120313A80028087D
:1000B000F30001300A128A15F1220A128A11143053
:1000C000F2008030F3000A128A1538240A128A11CD
:1000D00008000A128A110A200A128A116F280A12CD
:1000E0008A1594220A128A116930F0000030F1005A
:1000F0000A128A15A6220A128A1183120313671C98
:100100008228832892280030F000F1000A128A1514
:1001100056230A128A11700883120313D600560858
:10012000ED00A1280030F000F1000A128A155623D4
:100130000A128A11700883120313D6005608EA00C7
:10014000A1280130D6005608E7070A128A159D2219
:100150000A128A110D3083120313D700FB30D60028
:10016000D60BB028D70BB0280F3083120313D6005C
:100170005608F30002300A128A15F1220A128A1177
:10018000831203136D080A128A150E230A128A11AC
:100190000B30F2008030F3000A128A1538240A125C
:1001A0008A11403083120313BF004230BE008F30EB
:1001B000BD005C30BC006D08EC3EF000FF30031861
:1001C0000030F100F201F11BF2037208F30001307C
:1001D0000A128A153E260A128A1173088312031323
:1001E000C3007208C2007108C1007008C0000A1282
:1001F0008A1176240A128A11831203133F08E5003C
:100200003E08E4003D08E3003C08E2006508F30016
:100210006408F2006308F1006208F0000A128A150F
:10022000A4250A128A11700883120313D6005608F7
:10023000EC004230BF00C830BE000030BD000030CE
:10024000BC006508A7006408A6006308A500620852
:10025000A4006C08D600D701D801D9015908F300D1
:100260005808F2005708F1005608F00001300A1251
:100270008A153E260A128A11730883120313A300FB
:100280007208A2007108A1007008A0000A128A1565
:10029000BF220A128A11831203132308AB0022081B
:1002A000AA002108A9002008A8000A128A11BA2170
:1002B0000A128A11831203132708C3002608C200FA
:1002C0002508C1002408C0000A128A1176240A12E7
:1002D0008A11831203133F08E1003E08E0003D0845
:1002E000DF003C08DE006108F3006008F2005F08F0
:1002F000F1005E08F0000A128A15A4250A128A117C
:10030000700883120313D6005608EB006B08D60062
:100310005608B500B601B60A6C080A128A153425CB
:100320000A128A11093083120313D6005608F3000B
:1003300002300A128A15F1220A128A11831203135B
:100340006A080A128A150E230A128A1120300A122C
:100350008A15CE220A128A110B30F2008030F30087
:100360000A128A1538240A128A116F286F280A1275
:100370008A1100288312031327088039AC002C0847
:10038000B8002708AC002C07AD002D08BA00A61F46
:10039000CA29CB29CD293A14CD293A080319D129E4
:1003A000D229E3293A0A031DD629D729E0290030AA
:1003B000A7000030A6000030A5000030A400E0290E
:1003C000A617A701EC290030A7000030A6000030D6
:1003D000A5000030A400EC292B088039AC002C08C3
:1003E000B900390838060319F629F729F929381709
:1003F000F9292B08AC002C07AD002D08B900AA1F65
:10040000022A032A052A3914052A39080319092A58
:100410000A2A1B2A390A031D0E2A0F2A182A00301D
:10042000AB000030AA000030A9000030A800182A54
:10043000AA17AB01232A0030AB000030AA0000301D
:10044000A9000030A8003A0839020318282A292AEE
:100450006F2A381F2C2A2D2A322A8030AC002C0813
:10046000B806322A3A08AC002C08BB003908AC00A8
:100470002C08BA003B08AC002C08B9002408AC00DA
:100480002C08BB002808AC002C08A4003B08AC00DA
:100490002C08A8002508AC002C08BB002908AC00DB
:1004A0002C08A5003B08AC002C08A9002608AC00CD
:1004B0002C08BB002A08AC002C08A6003B08AC00A6
:1004C0002C08AA002708AC002C08BB002B08AC00A5
:1004D0002C08A7003B08AC002C08AB006F2ABB011E
:1004E0003A08AC00AD01AC09AD09AC0A0319AD0A7C
:1004F00039082C07AE002D0803182D0AAF002F086D
:10050000803AFF0080307F02031D882A1A302E02B5
:10051000031C8B2A8C2ACD2A831203132708260456
:1005200025042404031D952A972A0130982A0030B7
:10053000AC002C08BB000030A7000030A600003043
:10054000A5000030A4003908AC002C08BA00D62A57
:10055000CD2A3B1CAC2AAD2AB62A3B08AC000310BE
:100560002C0C0138AD002D08BB00B92A0310BB0CC0
:10057000B92A241CBC2ABD2ABF2ABB17BF2A0130B6
:10058000AC00270DA70CA60CA50CA40CAC0BC12A23
:100590000130AC002C08BA07CD2A831203133908A6
:1005A0003A02031CD42AD52AA92AD62A381BD92ACA
:1005B000DA2A292B3A08031DDE2ADF2AE92A00302D
:1005C000A7000030A6000030A5000030A400752C64
:1005D000752C2808A407290803110318013E0319E4
:1005E000F22AA5072A0803110318013E0319F92A64
:1005F000A6072B0803110318013E0319002BA707B8
:10060000271C032B042BF22B3B1C072B082B112B35
:100610003B08AC0003102C0C0138AD002D08BB00CA
:10062000142B0310BB0C142B241C172B182B1A2B68
:10063000BB171A2B0130AC00270DA70CA60CA50C7C
:10064000A40CAC0B1C2B0130AC002C08BA07F22B0D
:10065000F22B2708803AFF002B08803A7F02031D07
:100660003B2B2A082602031D3B2B29082502031DCC
:100670003B2B2808240203183E2B3F2BA52BFF30D1
:10068000AC00FF30AD00FF30AE00FF30AF002808F7
:10069000B0002908B1002A08B2002B08B3002409D1
:1006A000B4002509B5002609B6002709B700B40A29
:1006B0000319B50A0319B60A0319B70A3408B007B3
:1006C00035080318350F652B662BB107360803185C
:1006D000360F6B2B6C2BB20737080318370AB3079A
:1006E0003008AC0731080318310F772B782BAD0792
:1006F00032080318320F7D2B7E2BAE073308031808
:10070000330AAF072F08A7002E08A6002D08A50062
:100710002C08A4008030AC002C08B806BB09BB0A2A
:100720003B08031D942B952BB32B0130A4070030FD
:1007300003180130A507003003180130A607003068
:1007400003180130A707B32BB32B2808A4022908EC
:10075000031C290FA5022A08031C2A0FA6022B0836
:10076000031C2B0FA7022708260425042404031DBD
:10077000BA2BBB2BEC2B3B08031DBF2BC02BEC2B48
:100780000030A7000030A6000030A5000030A40013
:10079000752C752CEC2B0130AC000310A40DA50DAD
:1007A000A60DA70DAC0BCD2BBB1FD72BD82BD92B50
:1007B00024143B1CDC2BDD2BE02B0314BB0DE32BA3
:1007C0000310BB0DE32B3A080319E72BE82BEC2BA6
:1007D0000130BA02EC2BEC2BA61FEF2BF02BCB2B0E
:1007E000F22BF22BB901BB1FF62BF72B092C3B0880
:1007F0007F390319FC2BFD2B002CB901B90A092CF8
:10080000241C032C042C092CB901B90A092C092C2D
:10081000092C390803190D2C0E2C442C0130A40787
:10082000003003180130A507003003180130A60777
:10083000003003180130A707271C1F2C202C442C44
:100840002408AC002508AD002608AE002708AF003C
:100850000130B0002F0DAF0CAE0CAD0CAC0CB00BDA
:100860002A2C2F08A7002E08A6002D08A5002C086A
:10087000A4003A0A03193D2C3E2C442C0130AC0054
:100880002C08BA07442C442C3A0A0319482C492C4A
:100890004F2C3A08031D4D2C4E2C5F2C4F2C003052
:1008A000A7000030A6000030A5000030A4003A08E0
:1008B000031D5B2C5C2C5F2CB8015F2C5F2C3A1C59
:1008C000622C632C652CA617692C7F30AC002C0899
:1008D000A6053A08AC0003102C0CAD002D08A700AB
:1008E000B81F732C742C752CA717080083120313E0
:1008F0003F088039C4004408C9003F08C4004407C9
:10090000C5004508CF00BE1F862C872C892C4F14AC
:10091000892C4F0803198D2C8E2C9E2C4F0A031DF9
:10092000922C932C9C2C0030BF000030BE00003075
:10093000BD000030BC009C2CBE17A72C0030BF00AF
:100940000030BE000030BD000030BC00A72C4308C2
:100950008039C4004408C9064308C4004407C500E0
:100960004508CE00C21FB52CB62CB82C4E14B82C9E
:100970004E080319BC2CBD2CCD2C4E0A031DC12CD6
:10098000C22CCB2C0030C3000030C2000030C100AC
:100990000030C000CB2CC217D62C0030C300003072
:1009A000C2000030C1000030C000D62C4E08031930
:1009B000DA2CDB2CE12C4F08031DDF2CE02CEB2C78
:1009C000E12C0030BF000030BE000030BD00003020
:1009D000BC00EA2FEA2F3C08C4004408F00042089B
:1009E0000A128A152C230A128A1171088312031322
:1009F000D5007008D4005408C400C501C601C70161
:100A00004708CD004608CC004508CB004408CA0082
:100A10005508C400C501C601C7014708D3004608F0
:100A2000D2004508D1004408D0003D08C400440865
:100A3000F00041080A128A152C230A128A11710843
:100A400083120313D5007008D4005408C400C501F4
:100A5000C601C7014408CA07450803110318013E2F
:100A60000319332DCB07460803110318013E031960
:100A70003A2DCC07470803110318013E0319412DF5
:100A8000CD075508C400C501C601C7014408D007F9
:100A9000450803110318013E03194F2DD1074608DD
:100AA00003110318013E0319562DD20747080311FD
:100AB0000318013E03195D2DD3073E08C400440806
:100AC000F00040080A128A152C230A128A117108B4
:100AD00083120313D5007008D4005408C400C50164
:100AE000C601C7014408CA07450803110318013E9F
:100AF00003197B2DCB07460803110318013E031988
:100B0000822DCC07470803110318013E0319892DD4
:100B1000CD075508C400C501C601C7014408D00768
:100B2000450803110318013E0319972DD107460804
:100B300003110318013E03199E2DD2074708031124
:100B40000318013E0319A52DD3070830C400031074
:100B5000CA0DCB0DCC0DCD0DC40BA72D3D08C40087
:100B60004408F00040080A128A152C230A128A1140
:100B7000710883120313D5007008D4005408C40010
:100B80005508C500C601C7014408CA074508031136
:100B90000318013E0319CD2DCB0746080311031896
:100BA000013E0319D42DCC07470803110318013E59
:100BB0000319DB2DCD073C08C4004408F0004108B0
:100BC0000A128A152C230A128A1171088312031340
:100BD000D5007008D4005408C4005508C500C601EB
:100BE000C7014408CA07450803110318013E031949
:100BF000FA2DCB07460803110318013E0319012EF5
:100C0000CC07470803110318013E0319082ECD072E
:100C10000830C4000310CA0DCB0DCC0DCD0DC40B94
:100C20000A2E3C08C4004408F00040080A128A1545
:100C30002C230A128A11710883120313D50070083D
:100C4000D4005408C4005508C500C601C7014408B3
:100C5000CA07450803110318013E0319302ECB07BC
:100C6000460803110318013E0319372ECC07470825
:100C700003110318013E03193E2ECD073D08C400A1
:100C80004408F00042080A128A152C230A128A111D
:100C9000710883120313D5007008D4005408C400EF
:100CA0005508C500C601C7014408D007450803110F
:100CB0000318013E03195D2ED107460803110318DE
:100CC000013E0319642ED207470803110318013EA1
:100CD00003196B2ED3073E08C4004408F0004108F6
:100CE0000A128A152C230A128A117108831203131F
:100CF000D5007008D4005408C4005508C500C601CA
:100D0000C7014408D007450803110318013E031921
:100D10008A2ED107460803110318013E0319912EAC
:100D2000D207470803110318013E0319982ED30771
:100D30003E08C4004408F00042080A128A152C2319
:100D40000A128A11710883120313D5007008D400A7
:100D50005408C4005508C500C601C7010830031077
:100D6000C40DC50DC60DC70DFF3E031DAF2E4408B3
:100D7000D007450803110318013E0319C02ED107FF
:100D8000460803110318013E0319C72ED20747086E
:100D900003110318013E0319CE2ED3074A08C400DD
:100DA0004B08C5004C08C6004D08C700183003109A
:100DB000C70CC60CC50CC40CFF3E031DD72E44083F
:100DC000D007450803110318013E0319E82ED10787
:100DD000460803110318013E0319EF2ED2074708F6
:100DE00003110318013E0319F62ED3070830C4007F
:100DF0000310CA0DCB0DCC0DCD0DC40BF82E4F0832
:100E00004E07C400C501C50D4408823ED400450804
:100E10000318013EFF3ED5002C2F0130C400031003
:100E2000D00DD10DD20DD30DC40B0F2FCD1F192F07
:100E30001A2F1C2F50141C2F0130C4000310CA0D90
:100E4000CB0DCC0DCD0DC40B1E2FFF30D4070318D6
:100E5000D50AFF30D5072C2FD21F2F2F302F0D2F63
:100E6000312FCE01CD1F352F362F562FFF304A059B
:100E7000C400FF304B05C500FF304C05C6007F3075
:100E80004D05C70047084604450444040319492F8B
:100E90004A2F4D2FCE01CE0A562F501C502F512FC6
:100EA000562FCE01CE0A562F562F562F4E08031915
:100EB0005A2F5B2F8E2F0130D007003003180130DE
:100EC000D107003003180130D20700300318013079
:100ED000D307531C6C2F6D2F8E2F5008C400510860
:100EE000C5005208C6005308C7000130C800470DAE
:100EF000C70CC60CC50CC40CC80B772F4708D30011
:100F00004608D2004508D1004408D0000130D4077B
:100F10000318D50A0030D5078E2F8E2F5508803A3A
:100F2000FF0080307F02031D972FFF305402031C07
:100F30009A2F9B2FA62F7F3083120313D30080306C
:100F4000D2000030D1000030D000DD2F8312031317
:100F50005508803AFF0080307F02031DB12F013019
:100F600054020318B42FB52FC12F0030831203137E
:100F7000D3000030D2000030D1000030D000C901D1
:100F8000DD2F831203135408C4004408CF00FF3040
:100F9000D005FF30D1057F30D2050030D3054F1C7E
:100FA000D22FD32FD52FD217D52F4F08C40003101F
:100FB000440CC5004508D300DD2F4908C40044088F
:100FC000D3045308BF005208BE005108BD005008AA
:100FD000BC00EA2F080083135A3084006F300A12D5
:100FE0008A158C220A128A11A0308400A8300A12B5
:100FF0008A158C220A128A1183010A128A11692821
:10100000FF1B0A2883137F1883170008840A03191B
:10101000FF0A080008308A000408840A82070034A6
:10102000013400340A34003464340034E8340334C6
:101030001034273420342034003453343134003415
:10104000533432340034533433340034253464346C
:0210500000346A
:1015180064008001840A04060319003404068D2A35
:101528000A128A15B0220A128A1583160313111497
:1015380008000A128A15B0220A128A1583160313A4
:10154800111508000A128A15B0220A128A157008A5
:101558008312031393000800B12A83160313141986
:10156800B62AB72AB12A11081F39031DBC2ABD2A79
:10157800B12ABE2A08008312031323082204210477
:1015880020040319C82AC92ACC2A8030A306CC2AE9
:10159800CD2A0800F100831203130814710886008D
:1015A80088140D30F000F00BD72A8312031388102B
:1015B8000800F200831203130810720886008814CA
:1015C8000630F1003030F000F00BE82AF10BE82A81
:1015D80000008312031388100800F5007503031D2B
:1015E800F62AF72AFF2A73087F3EF400740883124C
:1015F8000313EE00072B7308BF3EF4007408831230
:101608000313EE00072B6E080A128A15DD220A1250
:101618008A15080083120313B4001730AD002D0893
:10162800A0003408AE00AF012E08A1002F08A200C8
:1016380030300A128A1500270A128A153030F20053
:101648000030F3000A128A1538240A128A15080095
:10165800F800F401F5017008F200F3017208F600D1
:101668007308F700372B781C3A2B3B2B412B760855
:10167800F4070318F50A7708F50701300310F60D8B
:10168800F70DFF3E031D422B0310F80C7808031DCD
:101698004E2B4F2B372B502B7508F1007408F00098
:1016A800552B08000A128A15B0220A128A158316C9
:1016B800031391150A128A15B0220A128A15831289
:1016C80003131308F200F3017208F4007308F5001D
:1016D8000A128A15B0220A128A1570037104031DB2
:1016E800762B772B7B2B8316031391127E2B831675
:1016F8000313911611167508F1007408F000842B75
:1017080008002830831203139400831603139101F1
:10171800831203132008A4002108A5002208A600AC
:101728002308A70002300310A40DA50DA60DA70DD0
:10173800FF3E031D972B2708F3002608F200250813
:10174800F1002408F0000030F7003D30F6000930C1
:10175800F5000030F4000A128A15C7240A128A1507
:101768007008FF3E8316031393009401871507162C
:1017780008001430F4007930F300F30BC12BF40B9C
:10178800C12BC62B30300A128A15DD220A128A159F
:1017980030300A128A15DD220A128A1530300A12F0
:1017A8008A15DD220A128A1538300A128A15DD22B6
:1017B8000A128A1510300A128A15DD220A128A15B1
:1017C80001300A128A15DD220A128A1506300A1219
:1017D8008A15DD220A128A150E300A128A15DD22B0
:1017E8000A128A150800780879040319FC2BFD2BC6
:1017F800322CFD01FD0A0C2C01300310F80DF90DF7
:10180800FF3E031D012C0130FC007C08FD070C2C59
:10181800F91F0F2C102C002C122C122C79087B028B
:10182800031D182C78087A02031C1B2C1C2C232C53
:101838007808FA027908031CFB03FB02232C013009
:101848000310F90CF80CFF3E031D242C0130FD0297
:10185800031D2F2C302C122C322C322C7B08F90033
:101868007A08F800372C0800F701F8015E2C770891
:101878007207F5007308F4000318F40AF71F452CE3
:10188800F4037408F600760883120313FF00750842
:1018980084000A128A1500200A128A150A128A156B
:1018A800CE220A128A150130F7070318F80A003009
:1018B800F8075E2C77087207F5007308F400031820
:1018C800F40AF71F682CF4037408F60076088312EC
:1018D8000313FF00750884000A128A1500200A12F3
:1018E8008A15003A031D792C7A2C3B2C7B2C080096
:1018F800F501F601700871040319832C842CC12C9E
:10190800F701F70A932C01300310F00DF10DFF3E9B
:10191800031D882C0130F4007408F707932CF11F7D
:10192800962C972C872C992C992C01300310F50DA7
:10193800F60DFF3E031D9A2C71087302031DA62C99
:1019480070087202031CA92CAA2CB22C7008F2028F
:101958007108031CF303F3027514B22C0130031051
:10196800F10CF00CFF3E031DB32C0130F702031DF0
:10197800BE2CBF2C992CC12CC12C7608F1007508FF
:10198800F000C62C08000030FC000030FB000030DE
:10199800FA000030F9007308720471047004031926
:1019A800D62CD72C2A2DFD01FD0AE82C0130F80091
:1019B8000310F00DF10DF20DF30DF80BDC2C0130D6
:1019C800F8007808FD07E82CF31FEB2CEC2CDA2C38
:1019D800EE2CEE2C0130F8000310F90DFA0DFB0D7A
:1019E800FC0DF80BF02C73087702031D052D720807
:1019F8007602031D052D71087502031D052D70085B
:101A08007402031C082D092D192D7008F4027108A1
:101A1800031C710FF5027208031C720FF60273089B
:101A2800031C730FF7027914192D01300310F30CFE
:101A3800F20CF10CF00CFF3E031D1A2D0130FD02D3
:101A4800031D272D282DEE2C2A2D2A2D7C08F30086
:101A58007B08F2007A08F1007908F000332D0800BD
:101A680083120313B8003608B7003708F3000230B2
:101A78000A128A15F1220A128A15831203133808EA
:101A88000A128A150E230A128A150A3083120313C2
:101A98003802031C502D512D562D0130B700370840
:101AA800B607562D64303802031C5B2D5C2D612D62
:101AB8000130B7003708B607612D3608013EB70078
:101AC8003708F30002300A128A15F1220A128A1521
:101AD8002E300A128A15CE220A128A15831203138F
:101AE8003608023EB7003708F30002300A128A159A
:101AF800F1220A128A150A308312031335020318D9
:101B0800862D872D8E2D30300A128A15CE220A1284
:101B18008A158E2D8312031335080A128A150E238F
:101B28000A128A15831203133608043EB7003708D1
:101B3800F30002300A128A15F1220A128A150800E7
:101B48007008F4007108F5007208F6007308F700D1
:101B58000310760D770DF8007808FA007A08031D4F
:101B6800B62DB72DC12D0030F3000030F200003043
:101B7800F1000030F0003D2E3D2E7008F400710891
:101B8800F5007208F6007308F7001F300310F70C11
:101B9800F60CF50CF40CFF3E031DCA2D7408F80072
:101BA8007808F900F217FF30F005FF30F105FF3033
:101BB800F2050030F3059630FA02FA1FE42DE52D00
:101BC8000A2E7A08803A973E0318EB2DEC2DF72D54
:101BD8000030F3000030F2000030F1000030F00077
:101BE8003D2E3D2EF72D01300310F30CF20CF10CB5
:101BF800F00CFF3E031DF82D0130F4007408FA07BD
:101C0800031D072E082EF72D2D2E2D2E20307A029B
:101C1800031C0F2E102E262E0030F3000030F20089
:101C28000030F1000030F0003D2E3D2E262E013010
:101C3800F4000310F00DF10DF20DF30DF40B1D2E51
:101C48000130FA027A08031D2A2E2B2E1B2E2D2E68
:101C58002D2E79080319312E322E3D2EF009F10967
:101C6800F209F309F00A0319F10A0319F20A031930
:101C7800F30A0800F80078080319432E442E582E5A
:101C8800F31F472E482E582E7009FA007109FB00E1
:101C98007209FC007309FD00FA0A0319FB0A03190B
:101CA800FC0A0319FD0A602E7308FD007208FC0087
:101CB8007108FB007008FA0073087204710470045C
:101CC800031D672E682E722E0030F3000030F200DC
:101CD8000030F1000030F000FF2EFF2E9630F400A7
:101CE8007408F900852E0130F4007408F9070130F2
:101CF8000310FD0CFC0CFB0CFA0CFF3E031D7C2EA4
:101D0800852EFE307D05031D8A2E8B2E772EA82E5C
:101D1800A82E0130F4007408F9070130FA070030E2
:101D280003180130FB07003003180130FC070030AE
:101D380003180130FD0701300310FD0CFC0CFB0CEF
:101D4800FA0CFF3E031DA02EFF307D05031DAD2EAE
:101D5800AE2E8D2EBC2EBC2E0130F9020130F400BF
:101D68000310FA0DFB0DFC0DFD0DF40BB42EBC2E6B
:101D7800FC1BBF2EC02EC72E023079020318C52EB9
:101D8800C62EB02EC72E7918CA2ECB2ED32EFF30D2
:101D9800FA05FF30FB057F30FC05FF30FD05031019
:101DA800F90C7908F400F501F601F7011830031071
:101DB800F40DF50DF60DF70DFF3E031DDB2E74082F
:101DC800FA047508FB047608FC047708FD04780813
:101DD8000319EF2EF02EF62EF31FF32EF42EF62E07
:101DE800FD17F62E7D08F3007C08F2007B08F10051
:101DF8007A08F000FF2E080083120313AB0021308D
:101E0800A3002308A600E62F25302C0603190D2F62
:101E18000E2F1A2F2C08A3002B08840023088313E5
:101E280080000130A3002308AB07E62FA701212F6C
:101E3800FA2F3E2F3E2FE62F3E2F0130A007FF300E
:101E4800200784000A128A150A200A128A15AC0093
:101E5800A300A4012408003A0319332FE62F23080E
:101E6800003A0319FA2F643A03193E2F0D3A031961
:101E78003E2FE62F2608840083130008A900840A51
:101E88000008AA000230A3002308A607AA1F4D2FA6
:101E98004E2F582F0330A3002308A704A909AA0925
:101EA800A90A0319AA0A582FAC01AC0A05302C0656
:101EB800031D5F2F602F622F8A2F8A2F2C08A30003
:101EC8002307013E84000A128A150A200A128A157D
:101ED800A4000A128A150A200A128A15A5002508E4
:101EE8002A02031D792F2408290203187C2F7D2F2D
:101EF8007F2F8A2F8A2F0130A3002308AC070530D3
:101F08002C06031D882F892F622F8A2F2708033953
:101F180003198F2F902F9C2F2D30A3002B0884009E
:101F28002308831380000130A3002308AB079C2FEC
:101F38002C08A3002308A800DB2F0A30F800003083
:101F4800F9002808A3002307013E84000A128A1515
:101F58000A200A128A15F0000A128A150A200A12A3
:101F68008A15F1002A08F3002908F2000A128A15D6
:101F78007C240A128A157108FB007008FA000A12FC
:101F88008A15F7230A128A157808303E831203133C
:101F9800A4002408AC002C08A3002B088400230804
:101FA800831380000130A3002308AB07DB2FFF3029
:101FB800A3002308A807280A031DE32FE42FA12F55
:101FC800E62FE62F0130A007FF30200784000A1211
:101FD8008A150A200A128A15A3002308AC002C08C7
:101FE800031DF72FF82F082FFA2FFA2F2B0884003C
:081FF80083138001FF2F080094
:04400E00D4E0FFFFFC
:00000001FF
