:020000040000FA
:060000000A128A11FC2F18
:100DFE008316031788018901831603138601880160
:100E0E008312031386018801831603130F088F398B
:100E1E0030388F000A128A1139270A128A11831666
:100E2E000313051408000A128A11FF260A128A11EA
:100E3E00202F83120313051C252F262F2D2F3F3015
:100E4E000A128A1159270A128A11202F20300A12EB
:100E5E008A1159270A128A11202F202F202F0A12A9
:100E6E008A1100288316031387149C309200831274
:100E7E0003131D08F0390C389D003F300A128A11F9
:100E8E0059270A128A11831203138C10033092040D
:100E9E001215512F8C1C542F552F512F83160313BF
:100EAE0087100800FC007C1C5D2F5E2F622F8312C2
:100EBE0003131D16652F831203131D12FC1C682FBE
:100ECE00692F6B2F9D166D2F9D126D2F7C08FC398F
:100EDE00F9007908FC000430F0000030F1007C08C5
:100EEE00F900FA017908F2007A08F3000A128A1161
:100EFE008B270A128A117008FB007B08FC007C0805
:100F0E00831203139B000800F601F11F8F2F902F01
:100F1E00982FF009F109F00A0319F10AF601F60A01
:100F2E00982FF31F9B2F9C2FA62FF209F309F20A7D
:100F3E000319F30A0130F4007408F606A62FF70120
:100F4E00F801700871040319AD2FAE2FEB2FF501C8
:100F5E00F50ABD2F01300310F00DF10DFF3E031DFC
:100F6E00B22F0130F4007408F507BD2FF11FC02F0A
:100F7E00C12FB12FC32FC32F01300310F70DF80D62
:100F8E00FF3E031DC42F71087302031DD02F70087E
:100F9E007202031CD32FD42FDC2F7008F2027108BB
:100FAE00031CF303F3027714DC2F01300310F10C52
:100FBE00F00CFF3E031DDD2F0130F502031DE82F5F
:100FCE00E92FC32FEB2FEB2F76080319EF2FF02FFE
:100FDE00F62FF709F809F70A0319F80AF62F780819
:100FEE00F1007708F000FB2F080083010A128A1126
:020FFE001A2FA8
:04400E00D4E0FFFFFC
:00000001FF
