:020000040000FA
:060000000A128A11FC2F18
:100E1C008316031788018901831603138601880141
:100E2C008312031386018801831603130F088F396D
:100E3C0030388F000A128A1145270A128A1183163C
:100E4C000313051408000A128A110E270A128A11BC
:100E5C0083120313051C332F342F3B2F3F300A1200
:100E6C008A1164270A128A112E2F20300A128A1135
:100E7C0064270A128A112E2F0A128A11002883164F
:100E8C00031387149C309200831203131D08F0394E
:100E9C000C389D003F300A128A1164270A128A11FD
:100EAC00831203138C100330920412158C1C5F2FC9
:100EBC00602F5C2F8316031387100800FC007C1C2A
:100ECC00682F692F6D2F831203131D16702F831239
:100EDC0003131D12FC1C732F742F762F9D16772F66
:100EEC009D127C08FC39F9007908FC000430F000F4
:100EFC000030F1007C08F900FA017908F2007A0858
:100F0C00F3000A128A1195270A128A117008FB0045
:100F1C007B08FC007C08831203139B000800F6017D
:100F2C00F11F992F9A2FA12FF009F109F00A03193B
:100F3C00F10AF601F60AF31FA42FA52FAE2FF20922
:100F4C00F309F20A0319F30A0130F4007408F606E7
:100F5C00F701F801700871040319B52FB62FED2FA6
:100F6C00F501F50AC42F01300310F00DF10DFF3E11
:100F7C00031DBA2F0130F4007408F507F11FC72FB9
:100F8C00C82FB92F01300310F70DF80DFF3E031DCC
:100F9C00C92F71087302031DD52F70087202031C30
:100FAC00D82FD92FE02F7008F2027108031CF3031D
:100FBC00F302771401300310F10CF00CFF3E031D0B
:100FCC00E12F0130F502031DEC2FED2FC82F760811
:100FDC000319F12FF22FF72FF709F809F70A031964
:100FEC00F80A7808F1007708F000080083010A126B
:040FFC008A11292FFE
:04400E00D4E0FFFFFC
:00000001FF
