:020000040000FA
:060000000A128A110E280D
:10000800FE00030E83120313C9000A08CA000A126D
:100018008A11B4290A128A1111280A128A114E2447
:100028000A128A11E0000A128A114F240A128A1150
:10003800E10083132030840046300A128A114624D6
:100048000A128A11FB01FC01FD0183010A128A11BF
:10005800A82B83120313D300530803193428352817
:100068004928CE1F3828392849284B09D5004C097A
:10007800D6004D09D7004E09D800D50A0319D60A6B
:100088000319D70A0319D80A51284E08D8004D0871
:10009800D7004C08D6004B08D5004E084D044C0438
:1000A8004B04031D5828592863280030CE0000301F
:1000B800CD000030CC000030CB00F028F02896307E
:1000C800CF004F08D40076280130CF004F08D4075E
:1000D80001300310D80CD70CD60CD50CFF3E031DED
:1000E8006D287628FE305805031D7B287C28682853
:1000F800992899280130CF004F08D4070130D50737
:10010800003003180130D607003003180130D70734
:10011800003003180130D80701300310D80CD70C71
:10012800D60CD50CFF3E031D9128FF305805031D42
:100138009E289F287E28AD28AD280130D4020130A2
:10014800CF000310D50DD60DD70DD80DCF0BA52890
:10015800AD28D71BB028B128B8280230540203189C
:10016800B628B728A128B8285418BB28BC28C42802
:10017800FF30D505FF30D6057F30D705FF30D805CD
:100188000310D40C5408CF00D001D101D20118308B
:100198000310CF0DD00DD10DD20DFF3E031DCC287D
:1001A8004F08D5045008D6045108D7045208D8047B
:1001B80053080319E028E128E728CE1FE428E5289A
:1001C800E728D817E7285808CE005708CD00560862
:1001D800CC005508CB00F028080000308312031328
:1001E8004B05D30000304C05D40080304D05D500B8
:1001F8007F304E05D6005608550454045304031D99
:10020800062907290F290030CE000030CD00003024
:10021800CC000030CB0000304F05D3000030500533
:10022800D40080305105D5007F305205D6005608DD
:10023800550454045304031D222923292C29003072
:10024800D2000030D1000030D0000030CF002C297F
:10025800CE1F2F29302962290030D3000030D40066
:100268000030D5008030D6004B09D7004C09D800A3
:100278004D09D9004E09DA00D70A0319D80A03191B
:10028800D90A0319DA0A5708D30758080318580F68
:100298004E294F29D40759080318590F54295529AD
:1002A800D5075A0803185A0AD6075608CE00550823
:1002B800CD005408CC005308CB006229D21F652911
:1002C800662998290030D3000030D4000030D500CA
:1002D8008030D6004F09D7005009D8005109D900FD
:1002E8005209DA00D70A0319D80A0319D90A0319D7
:1002F800DA0A5708D30758080318580F842985299C
:10030800D40759080318590F8A298B29D5075A0881
:1003180003185A0AD6075608D2005508D1005408BF
:10032800D0005308CF0098298030CE068030D206FE
:1003380052084E02031DAA2951084D02031DAA297D
:1003480050084C02031DAA294F084B020318AD2977
:10035800AE29B0290310B3290314B329B32908001F
:100368009F18B729B829BB29BB01BB0A0C138C1DE0
:10037800BE29BF295C2A1412141BC329C429C92900
:10038800941FC729C829D129C9291308C6004608B6
:10039800B900141394131416D12983160313941A4D
:1003A800D629D729F7291419DA29DB29F72983123D
:1003B80003131308C6004608B9008C111416E42963
:1003C80083160313141CE929EA29E429EB2983126B
:1003D800031313088800523083120313C600C60B98
:1003E800F3290000582A941AFA29FB29582A141DBF
:1003F800FE29FF29582A831203131308C60046084A
:10040800B9008316031314100330F0000030F10014
:100418007B0883120313C600C7014608F200470889
:10042800F3000A128A11FD220A128A117008831237
:100438000313C8004808FD007D08031D242A252A47
:10044800282A7C089300432A7D03031D2C2A2D2A81
:100458003F2A2308F3002208F2002108F1002008AF
:10046800F0000A128A1163220A128A117008831294
:1004780003139300432A62089300432A432A013056
:10048800C6004608FB071416523083120313C60031
:10049800C60B4C2A0000502A831603131418552A39
:1004A800562A502A582A582A831203138C115C2A78
:1004B8004A088A00490E8300FE0E7E0E0900700865
:1004C800F4007108F5007208F6007308F7000310CD
:1004D800760D770DF8007808FA007A08031D752A5A
:1004E800762A802A0030F3000030F2000030F10054
:1004F8000030F000FC2AFC2A7008F4007108F500AE
:100508007208F6007308F7001F300310F70CF60C9A
:10051800F50CF40CFF3E031D892A7408F8007808CE
:10052800F900F217FF30F005FF30F105FF30F20552
:100538000030F3059630FA02FA1FA32AA42AC92A22
:100548007A08803A973E0318AA2AAB2AB62A0030BE
:10055800F3000030F2000030F1000030F000FC2A17
:10056800FC2AB62A01300310F30CF20CF10CF00C43
:10057800FF3E031DB72A0130F4007408FA07031D73
:10058800C62AC72AB62AEC2AEC2A20307A02031C8B
:10059800CE2ACF2AE52A0030F3000030F2000030DE
:1005A800F1000030F000FC2AFC2AE52A0130F400B2
:1005B8000310F00DF10DF20DF30DF40BDC2A0130F0
:1005C800FA027A08031DE92AEA2ADA2AEC2AEC2A2E
:1005D80079080319F02AF12AFC2AF009F109F2092D
:1005E800F309F00A0319F10A0319F20A0319F30AC5
:1005F8000800F601F31F012B022B0A2BF209F3095D
:10060800F20A0319F30AF601F60A0A2BF11F0D2B59
:100618000E2B142BF009F109F00A0319F10A142B17
:10062800700871040319192B1A2B4F2BF501F50AC1
:10063800292B01300310F00DF10DFF3E031D1E2B79
:100648000130F4007408F507292BF11F2C2B2D2BF2
:100658001D2B2F2B2F2B71087302031D352B7008B0
:100668007202031C382B392B402B7008F2027108D8
:10067800031CF303F302402B01300310F10CF00CC0
:10068800FF3E031D412B0130F502031D4C2B4D2B62
:100698002F2B4F2B4F2B76080319532B542B5A2BE8
:1006A800F209F309F20A0319F30A5A2B7308F10045
:1006B8007208F0005F2B0800831203139F18652B44
:1006C800662BA72B1E08DB00DC01DD01DE015E08BE
:1006D800CE005D08CD005C08CC005B08CB00003084
:1006E8000A128A112D200A128A11831203134E0846
:1006F800A3004D08A2004C08A1004B08A0004230FE
:10070800CE004C30CD000030CC000030CB002308A8
:10071800D2002208D1002108D0002008CF000A12F8
:100728008A11F1200A128A11031C9B2B9C2BA12BE6
:1007380083120313BC01BC0AA52B83120313BC014B
:10074800A52B9F14A72B08000A128A11E7230A1267
:100758008A110A128A1126240A128A110A128A1187
:1007680036240A128A11B82B003083120313061894
:100778000130E2006203031DC22BC32BC62BB80154
:10078800B80AC82BB801C82B3B03031DCC2BCD2BB3
:10079800D72B0A128A1160230A128A1183120313B3
:1007A8009F14BB01D72B9F18DA2BDB2BDD2B9F1453
:1007B800DD2B38083C05DF005F08FC00B82BB82BA0
:1007C8000A128A110E28033083160313850003309A
:1007D80083160317880083120313850183160317F2
:1007E80089010130831603138600831203138601DF
:1007F800FF308316031387008312031387018316C0
:10080800031388018312031388010800831203135A
:10081800CB004B088316031393003630831203135F
:1008280094008030831603139400013091008715DB
:1008380007168B170B17831203138C1183160313D8
:100848008C15080083160317890183160313880182
:1008580083120313880160300A128A110A240A12CB
:100868008A1108008B170B17831603130C178312B2
:1008780003130C1381309F00831603139F139F12D9
:100888001F12080064008001840A0406031900345A
:080898000406472C0F34F03474
:04400E00D4E0FFFFFC
:00000001FF
