:020000040000FA
:060000000A128A110E280D
:10000800FE00030EFA000408FB000A08FC000A12AE
:100018008A1117290A128A111128FD018312031364
:10002800A001A101A20183010A128A112E2AF60059
:10003800F701F801F401F50107297603031D2528C6
:10004800262891287D287D28831203138510051101
:10005800851105140330F3009730F200F20B3228B3
:10006800F30B322837280130F7070318F80A003055
:10007800F8079128831203130510051185118514BB
:100088000330F3009730F200F20B4828F30B4828AE
:100098004D280130F7070318F80A0030F8079128AF
:1000A8008312031305108510851105150330F3001D
:1000B8009730F200F20B5E28F30B5E2863280130BC
:1000C800F7070318F80A0030F8079128831203137A
:1000D80005108510051185150330F3009730F200DF
:1000E800F20B7428F30B74287928F701F80191288A
:1000F80091287808003A0319822891287708003A4D
:1001080003192828013A03193E28033A03195428E9
:10011800013A03196A28912891287608031D952821
:1001280096280129ED28ED2883120313851005115F
:10013800051085150330F3009730F200F20BA22862
:10014800F30BA228A7280130F7070318F80A003094
:10015800F807012983120313051085108511051569
:100168000330F3009730F200F20BB828F30BB828ED
:10017800BD280130F7070318F80A0030F8070129ED
:100188008312031305100511851185140330F3003C
:100198009730F200F20BCE28F30BCE28D32801308B
:1001A800F7070318F80A0030F80701298312031328
:1001B80085118510051105140330F3009730F200FE
:1001C800F20BE428F30BE428E928F701F8010129E8
:1001D80001297808003A0319F22801297708003A1A
:1001E80003199828013A0319AE28033A0319C428B9
:1001F800013A0319DA28012901290130F407031803
:10020800F50A0030F5077108803AF2007508803A5F
:100218007202031D11297408700203181429152984
:100228002128162908008B138B11831203138C1DA8
:100238001E291F297A291412141B23292429292944
:10024800941F27292829312929291308F900790811
:10025800A200141394131416312983160313941A45
:1002680036293729542914193A293B295429831244
:1002780003131308F9007908A2008C1114164429F5
:1002880083160313141C49294A2944294B2983122C
:100298000313130888005330F900F90B5129772903
:1002A800941A572958297729141D5B295C2977291D
:1002B800831203131308F9007908A20083160313A5
:1002C80014107D0883120313930014165330F90099
:1002D800F90B6C296F2983160313141874297529CF
:1002E8006F2977297729831203138C110B1C7D2919
:1002F8007E29A729061881298229A7297D08031D97
:100308008629872994290030F0000830F10001304F
:100318000A128A111B200A128A11FD01FD0AA72957
:100328007D03031D98299929A7290030F00008307A
:10033800F10000300A128A111B200A128A11FD01ED
:10034800A729A729A7298B178B150B107C088A00CA
:100358007B0884007A0E8300FE0E7E0E09008B1740
:100368008B150B10D829831603130614161483163D
:10037800031386149614831603130615161583168D
:100388000313861596158316031306161616831679
:100398000313861696168316031306171617831665
:1003A800031386179617F929831203132408003AB2
:1003B8000319DF29F9292308003A0319B729013A53
:1003C8000319BB29033A0319BF29013A0319C329A1
:1003D800073A0319C729013A0319CB29033A031924
:1003E800CF29013A0319D329F929080083120313E5
:1003F800A3002308831603139300363083120313D4
:1004080094008030831603139400013091008715FF
:1004180007168B170B17831203138C1183160313FC
:100428008C150800831603178801890183160313A6
:100438008501831203138501FF3083160313860099
:1004480083120313860170300A128A11FA210A12E4
:100458008A1108000A128A1116220A128A1100301B
:1004680083120313A300A4000A128A11B3210A12EB
:0A0478008A113D2A0A128A110E288B
:04400E00D4E0FFFFFC
:00000001FF
