:020000040000FA
:060000000A128A110C280F
:10000800FE00030EF2000A08F3000A128A112028E3
:100018000A128A110F28F601F701F801F901831372
:10002800203084003D300A128A1153220A128A11A4
:1000380083010A128A11AC29831203138C1E252806
:1000480026288E287908031D2A282B2830281A08E4
:10005800F1007108F70083287903031D3428352837
:100068003A281A08F1007108F60083280230790648
:10007800031D3F28402845281A08F1007108B600DA
:10008800832803307906031D4A284B2850281A086C
:10009800F1007108B500832804307906031D55283E
:1000A80056285B281A08F1007108B4008328053027
:1000B8007906031D6028612866281A08F10071086E
:1000C800B300832806307906031D6B286C28712835
:1000D8001A08F1007108B200832807307906031D59
:1000E8007628772883281A08F1007108B100832838
:1000F800832883288328832883288328832801301A
:10010800F1007108F90779080739F1007108F90059
:10011800B0018E288C1D9128922817290A128A115D
:1001280040220A128A11F1007108F8007808031DAC
:100138009E289F28A62877080A128A115B220A128D
:100148008A1113297803031DAA28AB28B228760838
:100158000A128A115B220A128A11132902307806C0
:10016800031DB728B828C1288312031336080A12BA
:100178008A115B220A128A11132903307806031D9B
:10018800C628C728D0288312031335080A128A11F3
:100198005B220A128A11132904307806031DD52818
:1001A800D628DF288312031334080A128A115B2227
:1001B8000A128A11132905307806031DE428E52858
:1001C800EE288312031333080A128A115B220A12DB
:1001D8008A11132906307806031DF328F428FD2810
:1001E8008312031332080A128A115B220A128A1137
:1001F800132907307806031D0229032913298312BE
:10020800031331080A128A115B220A128A11132970
:10021800132913291329132913291329132983129D
:1002280003138C11172973088A00720E8300FE0EBF
:100238007E0E09008316031387178C12831203138B
:100248009817410C83160313031C18120318181669
:100258008312031340080319322933293B2918163E
:10026800831603138C16831203138C123B293F0841
:1002780003193F2940294329831603139816831627
:10028800031787158316031318112C3083120313D1
:100298003D06031D53293E03031D532954295B2999
:1002A800403083160313990003309A00A929B0300F
:1002B80083123D06043003193E06031D642965298F
:1002C8006A29CF30831603139900A9296030831255
:1002D8003D06093003193E06031D7329742979293F
:1002E8006730831603139900A929803083123D06CD
:1002F800253003193E06031D8229832988291930D0
:10030800831603139900A929B13083123D062830BA
:1003180003193E06031D9129922997291730831640
:1003280003139900A9294B3083123E063D04031D8F
:100338009E299F29A9290C30831603139900A929FE
:10034800A929A929A929A929A9290B178B170800BF
:100358000A128A11E3210A128A11803083120313C8
:10036800BD002530BE00BF01BF0AC001C00AC101DF
:100378000A128A111E210A128A11C2298312031332
:100388003008031DC829C929D42979080A128A11F5
:100398002B220A128A1183120313B001B00AD4293E
:1003A8000D3083120313C300FB30C200C20BDA29DD
:1003B800C30BDA29C229C2290A128A110C2883120E
:1003C80003138501860187018801890183160313B8
:1003D80085018601870187120716880189018B1715
:1003E8000B17831203138C11831603138C158312B6
:1003F8000313BD011030C0004008BE004030C100EA
:100408004108BF0025300A128A110D220A128A11EA
:100418000800F400831603138712741D142A152A82
:100428001D2A831203133F088316031394008715AC
:10043800252A831203133D083F04831603139400EF
:1004480087117408831203133E0494000800F50012
:100458002D2A83160313981C322A332A2D2A342A6C
:100468007508831203139900C730F4003B2AF40B74
:100478003A2A3E2A3F2A08000A128A114A220A12F8
:100488008A11831203131308492A08004B2A83167A
:100498000313141C502A512A4B2A522A08006400BC
:1004A8008001840A0406031900340406542AF00063
:0A04B800700883120313930008007C
:04400E00D4E0FFFFFC
:00000001FF
