:020000040000FA
:060000000A128A110C280F
:10000800FE00030EF1000A08F2000A128A11AE2857
:100018000A128A110F28F701F801F901FA0183136E
:10002800203084003C300A128A119D210A128A115C
:1000380083010A128A1123298316031387178C1246
:10004800831203139817400C83160313031C18120A
:1000580003181816831203133F0803193428352888
:100068003D281816831603138C16831203138C125B
:100078003D283E08031941284228452883160313C2
:1000880098168316031787158316031318112C3037
:10009800831203133C06031D55283D03031D5528F1
:1000A80056285D28403083160313990003309A00C0
:1000B800AB28B03083123C06043003193D06031DFB
:1000C800662867286C28CF30831603139900AB285D
:1000D800603083123C06093003193D06031D75285C
:1000E80076287B286730831603139900AB28803065
:1000F80083123C06253003193D06031D84288528F4
:100108008A281930831603139900AB28B13083125B
:100118003C06283003193D06031D93289428992886
:100128001730831603139900AB284B3083123D0612
:100138003C04031DA028A128AB280C308316031308
:100148009900AB28AB28AB28AB28AB28AB280B17FA
:100158008B170800831203138C1EB328B4281C299C
:100168007808031DB828B928BE281A08F0007008B6
:10017800B70011297803031DC228C328C8281A0804
:10018800F0007008B600112902307806031DCD284A
:10019800CE28D3281A08F0007008B50011290330BA
:1001A8007806031DD828D928DE281A08F000700818
:1001B800B400112904307806031DE328E428E9284F
:1001C8001A08F0007008B300112905307806031DDD
:1001D800EE28EF28F4281A08F0007008B200112958
:1001E80006307806031DF928FA28FF281A08F000B7
:1001F8007008B100112907307806031D0429052964
:1002080011291A08F0007008B000112911291129C4
:10021800112911291129112911290130F00070081B
:10022800F80778080739F0007008F800F7011C296A
:1002380072088A00710E8300FE0E7E0E09000A12F3
:100248008A1156210A128A11803083120313BC00C6
:100258002530BD00BE01BE0ABF01BF0AC0010A1297
:100268008A1120200A128A1139297708031D3D298D
:100278003E29472978080A128A1188210A128A1108
:10028800F701F70A47290D3083120313C200FB3028
:10029800C100C10B4D29C20B4D29392939290A1230
:1002A8008A110C2883160317880189018316031302
:1002B800071187120716803085008601880183128E
:1002C8000313860188010715F301F401F5012030B5
:1002D8000A128A1172210A128A110800F60083167E
:1002E80003138712761D79297A297E2975089400C7
:1002F8008715822973087504940087117608740499
:100308008312031394000800F4008A298316031348
:10031800981C8F2990298A2991297408831203131C
:100328009900C730F3009829F30B97299B299C293A
:10033800080064008001840A0406031900340406D6
:020348009E29EC
:04400E00D4E0FFFFFC
:00000001FF
