:020000040000FA
:060000000A128A110C280F
:10000800FE00030EFA000A08FB000A128A153F2FA9
:100018000A128A110F28FC01FD0183120313EF0154
:1000280083160313A001A101A201A301A401A50144
:10003800A601A70183010A128A11532E8312031302
:1000480031088039B6003608BB003108B6003607DB
:10005800B7003708C100B01F3228332835284114AB
:1000680035284108031939283A284A28410A031D26
:100078003E283F2848280030B1000030B00000304A
:10008800AF000030AE004828B01753280030B10048
:100098000030B0000030AF000030AE005328350803
:1000A8008039B6003608BB063508B6003607B700F3
:1000B8003708C000B41F61286228642840146428E7
:1000C80040080319682869287928400A031D6D2803
:1000D8006E2877280030B5000030B4000030B30037
:1000E8000030B2007728B41782280030B5000030FD
:1000F800B4000030B3000030B20082284008031971
:10010800862887288D284108031D8B288C28972846
:100118008D280030B1000030B0000030AF00003052
:10012800AE00962B962B2E08B6003608A000340891
:100138000A128A15DB250A128A1183120313210871
:10014800C7002008C6004608B600B701B801B901C3
:100158003908BF003808BE003708BD003608BC00A3
:100168004708B600B701B801B9013908C500380811
:10017800C4003708C3003608C2002F08B600360886
:10018800A00033080A128A15DB250A128A11831285
:1001980003132108C7002008C6004608B600B701A7
:1001A800B801B9013608BC07370803110318013E26
:1001B8000319DF28BD07380803110318013E031986
:1001C800E628BE07390803110318013E0319ED2874
:1001D800BF074708B600B701B801B9013608C2071A
:1001E800370803110318013E0319FB28C307380811
:1001F80003110318013E03190229C4073908031122
:100208000318013E03190929C5073008B600360846
:10021800A00032080A128A15DB250A128A118312F5
:1002280003132108C7002008C6004608B600B70116
:10023800B801B9013608BC07370803110318013E95
:1002480003192729BD07380803110318013E0319AC
:100258002E29BE07390803110318013E0319352951
:10026800BF074708B600B701B801B9013608C20789
:10027800370803110318013E03194329C307380837
:1002880003110318013E03194A29C4073908031149
:100298000318013E03195129C5070830B600031099
:1002A800BC0DBD0DBE0DBF0DB60B53292F08B600F2
:1002B8003608A00032080A128A15DB250A128A11AC
:1002C800831203132108C7002008C6004608B60099
:1002D8004708B700B801B9013608BC073708031149
:1002E8000318013E03197929BD07380803110318BB
:1002F800013E03198029BE07390803110318013E7E
:1003080003198729BF072E08B6003608A00033084E
:100318000A128A15DB250A128A118312031321088F
:10032800C7002008C6004608B6004708B700B8014D
:10033800B9013608BC07370803110318013E031931
:10034800A629BD07380803110318013E0319AD2972
:10035800BE07390803110318013E0319B429BF0762
:100368000830B6000310BC0DBD0DBE0DBF0DB60B99
:10037800B6292E08B6003608A00032080A128A15D7
:10038800DB250A128A11831203132108C7002008EB
:10039800C6004608B6004708B700B801B9013608D4
:1003A800BC07370803110318013E0319DC29BD07F0
:1003B800380803110318013E0319E329BE07390859
:1003C80003110318013E0319EA29BF072F08B600D5
:1003D8003608A00034080A128A15DB250A128A1189
:1003E800831203132108C7002008C6004608B60078
:1003F8004708B700B801B9013608C2073708031122
:100408000318013E0319092AC30738080311031802
:10041800013E0319102AC407390803110318013EC5
:100428000319172AC5073008B6003608A000330894
:100438000A128A15DB250A128A118312031321086E
:10044800C7002008C6004608B6004708B700B8012C
:10045800B9013608C207370803110318013E03190A
:10046800362AC307380803110318013E03193D2A29
:10047800C407390803110318013E0319442AC507A4
:100488003008B6003608A00034080A128A15DB25A1
:100498000A128A11831203132108C7002008C60014
:1004A8004608B6004708B700B801B901083003107C
:1004B800B60DB70DB80DB90DFF3E031D5B2A360802
:1004C800C207370803110318013E03196C2AC30732
:1004D800380803110318013E0319732AC4073908A1
:1004E80003110318013E03197A2AC5073C08B60010
:1004F8003D08B7003E08B8003F08B900183003109F
:10050800B90CB80CB70CB60CFF3E031D832A36088D
:10051800C207370803110318013E0319942AC307B9
:10052800380803110318013E03199B2AC407390828
:1005380003110318013E0319A22AC5070830B600A3
:100548000310BC0DBD0DBE0DBF0DB60BA42A41088E
:100558004007B600B701B70D3608823EC600370817
:100568000318013EFF3EC700D82A0130B600031029
:10057800C20DC30DC40DC50DB60BBB2ABF1FC52ABE
:10058800C62AC82A4214C82A0130B6000310BC0D76
:10059800BD0DBE0DBF0DB60BCA2AFF30C607031826
:1005A800C70AFF30C707D82AC41FDB2ADC2AB92AA2
:1005B800DD2AC001BF1FE12AE22A022BFF303C05D9
:1005C800B600FF303D05B700FF303E05B8007F306C
:1005D8003F05B90039083804370436040319F52AE9
:1005E800F62AF92AC001C00A022B421CFC2AFD2A5D
:1005F800022BC001C00A022B022B022B4008031950
:10060800062B072B3A2B0130C207003003180130A4
:10061800C307003003180130C40700300318013045
:10062800C507451C182B192B3A2B4208B60043085E
:10063800B7004408B8004508B9000130BA00390DC0
:10064800B90CB80CB70CB60CBA0B232B3908C5007B
:100658003808C4003708C3003608C2000130C6078E
:100668000318C70A0030C7073A2B3A2B4708803AC5
:10067800FF0080307F02031D432BFF304602031C1E
:10068800462B472B522B7F3083120313C500803033
:10069800C4000030C3000030C200892B831203134A
:1006A8004708803AFF0080307F02031D5D2B013030
:1006B80046020318602B612B6D2B00308312031345
:1006C800C5000030C4000030C3000030C200BB01C8
:1006D800892B831203134608B6003608C100FF3081
:1006E800C205FF30C3057F30C4050030C505411C75
:1006F8007E2B7F2B812BC417812B4108B60003105A
:10070800360CB7003708C500892B3B08B6003608F9
:10071800C5044508B1004408B0004308AF004208CA
:10072800AE00962B0800831203134B088039D000C3
:100738005008DC004B08D0005007D1005108DE00FB
:10074800CA1FA72BA82BAA2B5E14AA2B5E08031975
:10075800AE2BAF2BC02B5E0A031DB32BB42BBD2BC6
:100768000030CB000030CA000030C9000030C8009B
:10077800BD2BCA17CB01C92B0030CB000030CA00F3
:100788000030C9000030C800C92B4F088039D0009C
:100798005008DD005D085C060319D32BD42BD62B3B
:1007A8005C17D62B4F08D0005007D1005108DD0048
:1007B800CE1FDF2BE02BE22B5D14E22B5D08031923
:1007C800E62BE72BF82B5D0A031DEB2BEC2BF52B07
:1007D8000030CF000030CE000030CD000030CC001B
:1007E800F52BCE17CF01002C0030CF000030CE0003
:1007F8000030CD000030CC005E085D020318052CE7
:10080800062C4C2C5C1F092C0A2C0F2C8030D00095
:100818005008DC060F2C5E08D0005008DF005D0889
:10082800D0005008DE005F08D0005008DD004808FE
:10083800D0005008DF004C08D0005008C8005F08FE
:10084800D0005008CC004908D0005008DF004D08FF
:10085800D0005008C9005F08D0005008CD004A08F1
:10086800D0005008DF004E08D0005008CA005F08CA
:10087800D0005008CE004B08D0005008DF004F08C9
:10088800D0005008CB005F08D0005008CF004C2C97
:10089800DF015E08D000D101D009D109D00A0319BF
:1008A800D10A5D085007D20051080318510AD30035
:1008B8005308803AFF0080307F02031D652C1A30F0
:1008C8005202031C682C692CAA2C831203134B08B0
:1008D8004A0449044804031D722C742C0130752CF9
:1008E8000030D0005008DF000030CB000030CA00D4
:1008F8000030C9000030C8005D08D0005008DE0094
:10090800B32CAA2C5F1C892C8A2C932C5F08D0004E
:100918000310500C0138D1005108DF00962C031049
:10092800DF0C962C481C992C9A2C9C2CDF179C2C9D
:100938000130D0004B0DCB0CCA0CC90CC80CD00B25
:100948009E2C0130D0005008DE07AA2C8312031316
:100958005D085E02031CB12CB22C862CB32C5C1BE8
:10096800B62CB72C062D5E08031DBB2CBC2CC62C40
:100978000030CB000030CA000030C9000030C80089
:10098800522E522E4C08C8074D0803110318013E79
:100998000319CF2CC9074E0803110318013E031988
:1009A800D62CCA074F0803110318013E0319DD2C82
:1009B800CB074B1CE02CE12CCF2D5F1CE42CE52C45
:1009C800EE2C5F08D0000310500C0138D1005108FC
:1009D800DF00F12C0310DF0CF12C481CF42CF52C53
:1009E800F72CDF17F72C0130D0004B0DCB0CCA0CBD
:1009F800C90CC80CD00BF92C0130D0005008DE0708
:100A0800CF2DCF2D4B08803AFF004F08803A7F0248
:100A1800031D182D4E084A02031D182D4D084902C2
:100A2800031D182D4C08480203181B2D1C2D822D60
:100A3800FF30D000FF30D100FF30D200FF30D300AC
:100A48004C08D4004D08D5004E08D6004F08D700F2
:100A58004809D8004909D9004A09DA004B09DB00DE
:100A6800D80A0319D90A0319DA0A0319DB0A58083C
:100A7800D40759080318590F422D432DD5075A0892
:100A880003185A0F482D492DD6075B0803185B0A2F
:100A9800D7075408D00755080318550F542D552D5E
:100AA800D10756080318560F5A2D5B2DD207570841
:100AB8000318570AD3075308CB005208CA00510835
:100AC800C9005008C8008030D0005008DC06DF0993
:100AD800DF0A5F08031D712D722D902D0130C807A4
:100AE800003003180130C907003003180130CA0765
:100AF800003003180130CB07902D902D4C08C80208
:100B08004D08031C4D0FC9024E08031C4E0FCA02A4
:100B18004F08031C4F0FCB024B084A0449044804F2
:100B2800031D972D982DC92D5F08031D9C2D9D2D04
:100B3800C92D0030CB000030CA000030C900003099
:100B4800C800522E522EC92D0130D0000310C80DF6
:100B5800C90DCA0DCB0DD00BAA2DDF1FB42DB52D95
:100B6800B62D48145F1CB92DBA2DBD2D0314DF0D09
:100B7800C02D0310DF0DC02D5E080319C42DC52D2F
:100B8800C92D0130DE02C92DC92DCA1FCC2DCD2D8E
:100B9800A82DCF2DCF2DDD01DF1FD32DD42DE62D90
:100BA8005F087F390319D92DDA2DDD2DDD01DD0A26
:100BB800E62D481CE02DE12DE62DDD01DD0AE62DB0
:100BC800E62DE62D5D080319EA2DEB2D212E0130C7
:100BD800C807003003180130C90700300318013076
:100BE800CA07003003180130CB074B1CFC2DFD2D24
:100BF800212E4808D0004908D1004A08D2004B08E5
:100C0800D3000130D400530DD30CD20CD10CD00C2E
:100C1800D40B072E5308CB005208CA005108C9004C
:100C28005008C8005E0A03191A2E1B2E212E013007
:100C3800D0005008DE07212E212E5E0A0319252E2A
:100C4800262E2C2E5E08031D2A2E2B2E3C2E2C2EF3
:100C58000030CB000030CA000030C9000030C800A6
:100C68005E08031D382E392E3C2EDC013C2E3C2E0E
:100C78005E1C3F2E402E422ECA17462E7F30D000D3
:100C88005008CA055E08D0000310500CD100510866
:100C9800CB00DC1F502E512E522ECB1708000A1203
:100CA8008A15B0250A128A11592E003083120313AF
:100CB80006180130FD00061F622E632E812E7D0866
:100CC8000319672E682E812E523083120313EC000D
:100CD8002930EB00EB0B6E2EEC0B6E2E83160313F4
:100CE80087103F3083120313A0000030A1000A12BE
:100CF8008A1588250A128A11842E831603138714ED
:100D0800831203139F18892E8A2E8C2E9F148C2EE3
:100D180083160313220883120313A00083160313F8
:100D2800230883120313A100A201A30100300A12B1
:100D38008A111E270A128A11831203132308B50089
:100D48002208B4002108B3002008B2003F30B100E7
:100D58004C30B000CC30AF00CD30AE000A128A1152
:100D680022200A128A11831203133108CF00300897
:100D7800CE002F08CD002E08CC006F08EB00EC0148
:100D8800ED01EE016E08A3006D08A2006C08A10039
:100D98006B08A00001300A128A111E270A128A1154
:100DA800831203132308B5002208B4002108B300F6
:100DB8002008B2003E30B1004C30B000CC30AF005B
:100DC800CD30AE000A128A1122200A128A1183122B
:100DD80003133108CB003008CA002F08C9002E08B9
:100DE800C8000A128A1197230A128A118312031360
:100DF8004B08E3004A08E2004908E1004808E0001F
:100E08000A128A15A3260A128A118312031361088B
:100E180083160313A10083120313600883160313B8
:100E2800A0002108A3002008A200592E592E0A125A
:100E38008A110C2883120313A80028080319252FE8
:100E4800262F3A2FA31F292F2A2F3A2F2009AA002D
:100E58002109AB002209AC002309AD00AA0A031935
:100E6800AB0A0319AC0A0319AD0A422F2308AD00D7
:100E78002208AC002108AB002008AA00230822049D
:100E880021042004031D492F4A2F542F0030A300AA
:100E98000030A2000030A1000030A000E12FE12FB7
:100EA8009630A4002408A900672F0130A400240864
:100EB800A90701300310AD0CAC0CAB0CAA0CFF3E1B
:100EC800031D5E2F672FFE302D05031D6C2F6D2F20
:100ED800592F8A2F8A2F0130A4002408A90701302E
:100EE800AA07003003180130AB070030031801309F
:100EF800AC07003003180130AD0701300310AD0C0A
:100F0800AC0CAB0CAA0CFF3E031D822FFF302D0545
:100F1800031D8F2F902F6F2F9E2F9E2F0130A90218
:100F28000130A4000310AA0DAB0DAC0DAD0DA40B40
:100F3800962F9E2FAC1BA12FA22FA92F023029027A
:100F48000318A72FA82F922FA92F2918AC2FAD2F40
:100F5800B52FFF30AA05FF30AB057F30AC05FF3059
:100F6800AD050310A90C2908A400A501A601A70135
:100F780018300310A40DA50DA60DA70DFF3E031DE7
:100F8800BD2F2408AA042508AB042608AC042708AA
:100F9800AD0428080319D12FD22FD82FA31FD52F7E
:100FA800D62FD82FAD17D82F2D08A3002C08A200B4
:100FB8002B08A1002A08A000E12F080083120313C0
:100FC800A0002008831603139300363083120313FE
:100FD8009400803083160313940001309100871524
:100FE80007168B170B17831203138C118316031321
:040FF8008C1508004C
:101AC000831603131E08642D08008316031387145E
:101AD0009C309200831203131D08F0390C389D00CE
:101AE0003F30A0000030A1000A128A1588250A1292
:101AF0008A15831203138C10033092041215802D63
:101B00008C1C832D842D802D8316031387100800D1
:101B100083120313201C8D2D8E2D902D1D16912DBB
:101B20001D12A01C942D952D972D9D16992D9D125B
:101B3000992DFC302005A00000302105A1002108CE
:101B4000A3002008A2000310A30CA20C0310A30CF6
:101B5000A20C2208A0002308A10020089B00080076
:101B600083160317880189018316031386018801F0
:101B700083120313860188018316031306140030B1
:101B80000A128A1507260A128A1568300A128A1163
:101B9000E2270A128A15831603130F088F3930388B
:101BA0008F000A128A1565250A128A1583160313F7
:101BB00087140617080083120313A800A401A501C7
:101BC0002008A200A3012208A6002308A700E82DF0
:101BD000281CEB2DEC2DF22D2608A4070318A50ACE
:101BE0002708A50701300310A60DA70DFF3E031D12
:101BF000F32D0310A80C2808031DFF2D002EE82D3F
:101C0000012E2508A1002408A000062E080083123A
:101C10000313A2000B17831603130C17831203136D
:101C20000C13831603139F179F121F1283120313A3
:101C30001F14272E9F131F133D2E9F131F173D2E7A
:101C40009F171F133D2E9F171F173D2E3D2E220855
:101C5000A000A1012108003A03192F2E3D2E2008D3
:101C6000003A03191A2E013A03191D2E033A0319DB
:101C7000202E013A0319232E3D2E9F148B170800A6
:101C8000F601F31F442E452E4D2EF209F309F20AF8
:101C90000319F30AF601F60A4D2EF11F502E512EAC
:101CA000572EF009F109F00A0319F10A572E7008AE
:101CB000710403195C2E5D2E922EF501F50A6C2E2F
:101CC00001300310F00DF10DFF3E031D612E0130B8
:101CD000F4007408F5076C2EF11F6F2E702E602E25
:101CE000722E722E71087302031D782E7008720214
:101CF000031C7B2E7C2E832E7008F2027108031CBD
:101D0000F303F302832E01300310F10CF00CFF3EBD
:101D1000031D842E0130F502031D8F2E902E722E8E
:101D2000922E922E76080319962E972E9D2EF2094A
:101D3000F309F20A0319F30A9D2E7308F1007208E1
:101D4000F000A22E0800831203136008E40061086B
:101D5000E5006208E6006308E7000310660D670D02
:101D6000E8006808EA006A08031DB72EB82EC22EE4
:101D70000030E3000030E2000030E1000030E0001D
:101D80003E2F3E2F6008E4006108E5006208E6008F
:101D90006308E7001F300310E70CE60CE50CE40CC9
:101DA000FF3E031DCB2E6408E8006808E900E21737
:101DB000FF30E005FF30E105FF30E2050030E305CC
:101DC0009630EA02EA1FE52EE62E0B2F6A08803ACB
:101DD000973E0318EC2EED2EF82E0030E300003075
:101DE000E2000030E1000030E0003E2F3E2FF82EF0
:101DF00001300310E30CE20CE10CE00CFF3E031D8C
:101E0000F92E0130E4006408EA07031D082F092FAA
:101E1000F82E2E2F2E2F20306A02031C102F112F88
:101E2000272F0030E3000030E2000030E1000030F6
:101E3000E0003E2F3E2F272F0130E4000310E00D7D
:101E4000E10DE20DE30DE40B1E2F0130EA026A08FA
:101E5000031D2B2F2C2F1C2F2E2F2E2F690803191B
:101E6000322F332F3E2FE009E109E209E309E00AAE
:101E70000319E10A0319E20A0319E30A08008312AD
:101E800003138C1D442F452FE92F1412141B492FC7
:101E90004A2F4F2F941F4D2F4E2F5B2F4F2F13087C
:101EA000F700770883160313A60083120313141395
:101EB000941314165B2F83160313941A602F612F4B
:101EC000862F1419642F652F862F8312031313088E
:101ED000F700770883160313A600831203138C11EF
:101EE0001416722F83160313141C772F782F722F5A
:101EF000792F831203131308F7007708831603134F
:101F0000A4000A30F700F70B832FE62F941A892FCD
:101F10008A2FE62F141D8D2F8E2FE62F8312031389
:101F20001308F700770883160313A6001410033074
:101F3000F0000030F1002408F700F8017708F20003
:101F40007808F3000A128A1540260A128A157008CA
:101F5000F9007908FC007C08031DAF2FB02FB72FC4
:101F6000831603132008831203139300D02F7C03DE
:101F7000031DBB2FBC2FC32F003083120313061B7E
:101F800001309300D02F02307C06031DC82FC92FCB
:101F9000D02F7D08831203139300D02FD02FD02F82
:101FA0000130F700770883160313A4078312031385
:101FB00014160A30F700F70BDB2FDE2F83160313FE
:101FC0001418E32FE42FDE2FE62FE62F83120313DE
:101FD0008C119F18EC2FED2FF92F0A128A1560250E
:101FE0000A128A15F700770883120313EF000C1307
:101FF000F92F7B088A007A0E8300FE0E7E0E090000
:04400E00D4E0FFFFFC
:00000001FF
