:020000040000FA
:060000000A128A110C280F
:10000800FE00030EFA000A08FB000A128A111C28D7
:100018000A128A110F28FC01FD0183120313A6019D
:10002800A701A801A901AA0183010A128A112A2994
:10003800831203138C1D21282228BA281412141B9A
:10004800262827282C28941F2A282B2834282C28AF
:100058001308F7007708A80014139413141634280B
:1000680083160313941A39283A28592814193D2855
:100078003E285928831203131308F7007708A800AD
:100088008C111416472883160313141C4C284D286A
:1000980047284E28831203131308F7007708A60091
:1000A8000A30F700F70B5628B728941A5C285D2801
:1000B800B728141D60286128B72883120313130872
:1000C800F7007708A8008316031314100330F00014
:1000D8000030F100831203132608F700F8017708AF
:1000E800F2007808F3000A128A11C7200A128A114E
:1000F8007008F9007908FC007C08031D842885280D
:100108008A28831203131E089300A3287C03031D67
:100118008E288F289628831603131E08831203132C
:100128009300A32802307C06031D9B289C28A32843
:100138007D08831203139300A328A328A328013062
:10014800F700770883120313A60714160A30F7007E
:10015800F70BAC28AF28831603131418B428B52856
:10016800AF28B728B728831203138C119F18BD280E
:10017800BE28C0280C13C0287B088A007A0E83008A
:10018800FE0E7E0E0900F601F31FCB28CC28D428DA
:10019800F209F309F20A0319F30AF601F60AD42858
:1001A800F11FD728D828DE28F009F109F00A031929
:1001B800F10ADE28700871040319E328E4281929D4
:1001C800F501F50AF32801300310F00DF10DFF3E9B
:1001D800031DE8280130F4007408F507F328F11F1F
:1001E800F628F728E728F928F92871087302031D6B
:1001F800FF2870087202031C022903290A297008C3
:10020800F2027108031CF303F3020A2901300310F8
:10021800F10CF00CFF3E031D0B290130F502031D04
:1002280016291729F92819291929760803191D29C2
:100238001E292429F209F309F20A0319F30A2429C9
:100248007308F1007208F000292908000A128A11BF
:10025800A1210A128A1130290030831203130618CB
:100268000130FD00061F39293A2958297D0803194C
:100278003E293F295829523083120313A5002930FB
:10028800A400A40B4529A50B452983160313871041
:100298003F3083120313A0000030A1000A128A1114
:1002A800CC210A128A115B2983160313871483123F
:1002B80003139F186029612930299F143029302998
:1002C80030290A128A110C2883120313A2000B1773
:1002D800831603130C17831203130C1383160313CB
:1002E8009F139F121F12831203131F1488299F1331
:1002F8001F139E299F131F179E299F171F139E299F
:100308009F171F179E299E292208A000A1012108D6
:10031800003A031990299E292008003A03197B29DD
:10032800013A03197E29033A03198129013A03196D
:1003380084299E299F148B170800831603178801A8
:10034800890183160313860188018312031386012A
:10035800880183160313061400300A128A116821D3
:100368000A128A1168300A128A1117220A128A118F
:10037800831603130F088F3930388F000A128A1139
:10038800F4210A128A11831603138714061708002A
:1003980083120313201CD129D229D4291D16D5294B
:1003A8001D12A01CD829D929DB299D16DD299D12EB
:1003B800DD29FC302005A00000302105A10021081E
:1003C800A3002008A2000310A30CA20C0310A30C86
:1003D800A20C2208A0002308A10020089B00080006
:1003E8008316031387149C309200831203131D088D
:1003F800F0390C389D003F30A0000030A1000A12EF
:100408008A11CC210A128A11831203138C1003302B
:10041800920412150F2A8C1C122A132A0F2A8316EB
:1004280003138710080083120313A0002008831603
:10043800031393003630831203139400803083161D
:100448000313940001309100871507168B170B17BB
:0E045800831203138C11831603138C150800F6
:04400E00D4E0FFFFFC
:00000001FF
