:020000040000FA
:060000000A128A110C280F
:10000800FE00030EF1000A08F2000A128A118B2979
:100018000A128A110F280A128A11D9220A128A1181
:10002800D3000A128A11DA220A128A11D400831321
:100038002030840045300A128A11D1220A128A110E
:10004800F701F801F90183010A128A11352A83128E
:100058000313C90049080319322833284728F61F13
:100068003628372847287309CB007409CC0075094E
:10007800CD007609CE00CB0A0319CC0A0319CD0AA4
:100088000319CE0A4F287608CE007508CD007408EB
:10009800CC007308CB007608750474047304031D40
:1000A8005628572860280030F6000030F500003048
:1000B800F4000030F300E6289630C5004508CA0071
:1000C80072280130C5004508CA0701300310CE0C5C
:1000D800CD0CCC0CCB0CFF3E031D6A28FE304E0520
:1000E800031D77287828652894280130C50045081D
:1000F800CA070130CB07003003180130CC070030A5
:1001080003180130CD07003003180130CE07013045
:100118000310CE0CCD0CCC0CCB0CFF3E031D8C2851
:10012800FF304E05031D99289A287928A628013002
:10013800CA020130C5000310CB0DCC0DCD0DCE0D7C
:10014800C50B9F28CD1BA928AA28B02802304A022F
:100158000318AF28B0289B284A18B328B428BC280D
:10016800FF30CB05FF30CC057F30CD05FF30CE0505
:100178000310CA0C4A08C500C601C701C8011830D7
:100188000310C50DC60DC70DC80DFF3E031DC428BD
:100198004508CB044608CC044708CD044808CE04DB
:1001A80049080319D828D928DE28F61FDC28DD28B5
:1001B800DE28CE174E08F6004D08F5004C08F4006E
:1001C8004B08F30008000030831203134505F300C1
:1001D80000304605F40080304705F5007F304805BB
:1001E800F6007608750474047304031DFC28FD28C2
:1001F80005290030C8000030C7000030C6000030B4
:10020800C50000304905F30000304A05F40080308D
:100218004B05F5007F304C05F6007608750474042C
:100228007304031D1829192921290030CC00003036
:10023800CB000030CA000030C900C81F2429252976
:1002480049290030F3000030F4000030F500803018
:10025800F6004508F3024608031C460F34293529E1
:10026800F4024708031C470F3A293B29F5024808BE
:10027800031C480F40294129F6027608C800750872
:10028800C7007408C6007308C500CC1F4C294D2947
:1002980071290030F3000030F4000030F5008030A0
:1002A800F6004908F3024A08031C4A0F5C295D2935
:1002B800F4024B08031C4B0F62296329F5024C0812
:1002C800031C4C0F68296929F6027608CC007508CA
:1002D800CB007408CA007308C9008030C806803093
:1002E800CC064C084802031D83294B084702031D0E
:1002F80083294A084602031D832949084502031831
:1003080086298729892903108A290314080083125A
:1003180003139F18902991299429F801F80A0C13BE
:100328008C1D97299829EC291412141B9C299D29A6
:10033800A129941FA029A129A8291308F000700851
:10034800B90014139413141683160313941AAD29C1
:10035800AE29C9291419B129B229C929831203134D
:100368001308F0007008B9008C11141683160313D3
:10037800141CBF29C029BA29831203131308880043
:100388005330F000F00BC629E929941ACC29CD295D
:10039800E929141DD029D129E92983120313130847
:1003A800F0007008B90083160313141083120313A6
:1003B8003808930014165330F000F00BE129831627
:1003C80003131418E829E929E329831203138C116C
:1003D80072088A00710E8300FE0E7E0E09008312D9
:1003E80003139F18F829F929342A1E08CF00D001D1
:1003F800D101D2015208F6005108F5005008F40066
:100408004F08F30000300A128A112B200A128A11B1
:10041800760883120313A3007508A2007408A100CC
:100428007308A0004230C8004C30C7000030C60036
:100438000030C5002308CC002208CB002108CA00E0
:100448002008C9000A128A11E7200A128A11031C1F
:100458002E2A2F2A312AF901F90A831203139F142D
:1004680008000A128A1174220A128A110A128A11C1
:10047800B1220A128A110A128A11C1220A128A1199
:1004880000308312031306180130D5005503031DED
:100498004E2A4F2A512AF701F70A7803031D552AD5
:1004A800562A5F2A0A128A11F3210A128A11831224
:1004B80003139F14F8019F18622A632A642A9F1461
:1004C80077080319682A692A442A790803196D2AC2
:1004D8006E2A442AB801B80A442A0A128A110C283A
:1004E800033083160313850003308316031788002F
:1004F80083120313850183160317890101308316BC
:1005080003138600831203138601FF308316031337
:10051800870083120313870183160313880183124C
:10052800031388010800F30073088316031393006C
:10053800363083120313940080308316031394001B
:1005480001309100871507168B170B1783120313B9
:100558008C11831603138C15080083160317890161
:1005680083160313880183120313880160300A126B
:100578008A1197220A128A1108008B170B17831603
:1005880003130C17831203130C1381309F00831677
:1005980003139F139F121F12080064008001840A2E
:0E05A8000406031900340406D22A0F34F0347E
:04400E00D4E0FFFFFC
:00000001FF
