:020000040000FA
:060000000A128A110E280D
:10000800FE00030E83120313C9000A08CA000A126D
:100018008A11B4290A128A1111280A128A11522443
:100028000A128A11DF000A128A1153240A128A114D
:10003800E00083132030840046300A128A114A24D3
:100048000A128A11FB01FC01FD0183010A128A11BF
:10005800A42B83120313D30053080319342835281B
:100068004928CE1F3828392849284B09D5004C097A
:10007800D6004D09D7004E09D800D50A0319D60A6B
:100088000319D70A0319D80A51284E08D8004D0871
:10009800D7004C08D6004B08D5004E084D044C0438
:1000A8004B04031D5828592863280030CE0000301F
:1000B800CD000030CC000030CB00F028F02896307E
:1000C800CF004F08D40076280130CF004F08D4075E
:1000D80001300310D80CD70CD60CD50CFF3E031DED
:1000E8006D287628FE305805031D7B287C28682853
:1000F800992899280130CF004F08D4070130D50737
:10010800003003180130D607003003180130D70734
:10011800003003180130D80701300310D80CD70C71
:10012800D60CD50CFF3E031D9128FF305805031D42
:100138009E289F287E28AD28AD280130D4020130A2
:10014800CF000310D50DD60DD70DD80DCF0BA52890
:10015800AD28D71BB028B128B8280230540203189C
:10016800B628B728A128B8285418BB28BC28C42802
:10017800FF30D505FF30D6057F30D705FF30D805CD
:100188000310D40C5408CF00D001D101D20118308B
:100198000310CF0DD00DD10DD20DFF3E031DCC287D
:1001A8004F08D5045008D6045108D7045208D8047B
:1001B80053080319E028E128E728CE1FE428E5289A
:1001C800E728D817E7285808CE005708CD00560862
:1001D800CC005508CB00F028080000308312031328
:1001E8004B05D30000304C05D40080304D05D500B8
:1001F8007F304E05D6005608550454045304031D99
:10020800062907290F290030CE000030CD00003024
:10021800CC000030CB0000304F05D3000030500533
:10022800D40080305105D5007F305205D6005608DD
:10023800550454045304031D222923292C29003072
:10024800D2000030D1000030D0000030CF002C297F
:10025800CE1F2F29302962290030D3000030D40066
:100268000030D5008030D6004B09D7004C09D800A3
:100278004D09D9004E09DA00D70A0319D80A03191B
:10028800D90A0319DA0A5708D30758080318580F68
:100298004E294F29D40759080318590F54295529AD
:1002A800D5075A0803185A0AD6075608CE00550823
:1002B800CD005408CC005308CB006229D21F652911
:1002C800662998290030D3000030D4000030D500CA
:1002D8008030D6004F09D7005009D8005109D900FD
:1002E8005209DA00D70A0319D80A0319D90A0319D7
:1002F800DA0A5708D30758080318580F842985299C
:10030800D40759080318590F8A298B29D5075A0881
:1003180003185A0AD6075608D2005508D1005408BF
:10032800D0005308CF0098298030CE068030D206FE
:1003380052084E02031DAA2951084D02031DAA297D
:1003480050084C02031DAA294F084B020318AD2977
:10035800AE29B0290310B3290314B329B32908001F
:100368009F18B729B829BB29BB01BB0A0C138C1DE0
:10037800BE29BF29582A1412141BC329C429C92904
:10038800941FC729C829D129C9291308C6004608B6
:10039800B900141394131416D12983160313941A4D
:1003A800D629D729F7291419DA29DB29F72983123D
:1003B80003131308C6004608B9008C111416E42963
:1003C80083160313141CE929EA29E429EB2983126B
:1003D800031313088800523083120313C600C60B98
:1003E800F3290000542A941AFA29FB29542A141DC7
:1003F800FE29FF29542A831203131308C60046084E
:10040800B9008316031314100330F0000030F10014
:100418007B0883120313C600C7014608F200470889
:10042800F3000A128A11F9220A128A11700883123B
:100438000313C8004808FD007D08031D242A252A47
:10044800282A7C089300432A7D03031D2C2A2D2A81
:100458003F2A2308F3002208F2002108F1002008AF
:10046800F0000A128A115F220A128A117008831298
:1004780003139300432A61089300432A432A14165E
:10048800523083120313C600C60B482A00004C2AB8
:10049800831603131418512A522A4C2A542A542A10
:1004A800831203138C11582A4A088A00490E8300C4
:1004B800FE0E7E0E09007008F4007108F50072083F
:1004C800F6007308F7000310760D770DF80078082A
:1004D800FA007A08031D712A722A7C2A0030F30078
:1004E8000030F2000030F1000030F000F82AF82A5D
:1004F8007008F4007108F5007208F6007308F70038
:100508001F300310F70CF60CF50CF40CFF3E031D1E
:10051800852A7408F8007808F900F217FF30F0050A
:10052800FF30F105FF30F2050030F3059630FA028E
:10053800FA1F9F2AA02AC52A7A08803A973E0318EC
:10054800A62AA72AB22A0030F3000030F2000030B1
:10055800F1000030F000F82AF82AB22A013003101E
:10056800F30CF20CF10CF00CFF3E031DB32A013022
:10057800F4007408FA07031DC22AC32AB22AE82A1B
:10058800E82A20307A02031CCA2ACB2AE12A003042
:10059800F3000030F2000030F1000030F000F82ADB
:1005A800F82AE12A0130F4000310F00DF10DF20DE4
:1005B800F30DF40BD82A0130FA027A08031DE52A54
:1005C800E62AD62AE82AE82A79080319EC2AED2A25
:1005D800F82AF009F109F209F309F00A0319F10AF6
:1005E8000319F20A0319F30A0800F601F31FFD2A9A
:1005F800FE2A062BF209F309F20A0319F30AF60197
:10060800F60A062BF11F092B0A2B102BF009F1090A
:10061800F00A0319F10A102B700871040319152B3D
:10062800162B4B2BF501F50A252B01300310F00D85
:10063800F10DFF3E031D1A2B0130F4007408F50775
:10064800252BF11F282B292B192B2B2B2B2B710832
:100658007302031D312B70087202031C342B352BD7
:100668003C2B7008F2027108031CF303F3023C2BC5
:1006780001300310F10CF00CFF3E031D3D2B01303F
:10068800F502031D482B492B2B2B4B2B4B2B7608A4
:1006980003194F2B502B562BF209F309F20A0319B1
:1006A800F30A562B7308F1007208F0005B2B080060
:1006B800831203139F18612B622BA32B1E08DB00E8
:1006C800DC01DD01DE015E08CE005D08CD005C08BE
:1006D800CC005B08CB0000300A128A112D200A12C8
:1006E8008A11831203134E08A3004D08A2004C0878
:1006F800A1004B08A0004230CE004C30CD000030A5
:10070800CC000030CB002308D2002208D1002108F9
:10071800D0002008CF000A128A11F1200A128A118B
:10072800031C972B982B9D2B83120313BC01BC0A27
:10073800A12B83120313BC01A12B9F14A32B080028
:100748000A128A11EB230A128A110A128A112A2420
:100758000A128A110A128A113A240A128A11B42B2F
:1007680000308312031306180130E1006103031DF2
:10077800BE2BBF2BC22BB801B80AC42BB801C42B9F
:100788003B03031DC82BC92BD32B0A128A115C23E8
:100798000A128A11831203139F14BB01D32B9F18CB
:1007A800D62BD72BD92B9F14D92B38080319DD2B1F
:1007B800DE2BB42B3C080319E22BE32BB42BFC01F2
:1007C800FC0AB42BB42BB42B0A128A110E2803305E
:1007D80083160313850003308316031788008312DA
:1007E8000313850183160317890101308316031348
:1007F8008600831203138601FF30831603138700D4
:1008080083120313870183160313880183120313CA
:100818008801080083120313CB004B0883160313C7
:100828009300363083120313940080308316031329
:10083800940001309100871507168B170B17831248
:1008480003138C11831603138C15080083160317E2
:10085800890183160313880183120313880160300A
:100868000A128A110E240A128A1108008B170B1714
:10087800831603130C17831203130C1381309F0084
:10088800831603139F139F121F1208006400800130
:10089800840A04060319003404064B2C0F34F03480
:04400E00D4E0FFFFFC
:00000001FF
