:020000040000FA
:060000000A128A110E280D
:10000800FE00030EF9000408FA000A08FB000A12B1
:100018008A1116290A128A111128FC0183010A1271
:100028008A115029F600F701F801F401F501C028FA
:100038007603031D202821286B28582883120313D0
:1000480085100511851105140330F3009730F2006F
:10005800F20B2C28F30B2C2831280130F707031852
:10006800F80A0030F8076B288312031305100511EE
:10007800851185142828831203130510851085110E
:1000880005152828831203130510851005118515F9
:100098000330F3009730F200F20B5028F30B50288E
:1000A8005528F701F8016B287808003A03195D28EC
:1000B8006B287708003A03192228013A03193828CF
:1000C800033A03193F28013A031946286B28760892
:1000D800031D6F287028BA28A728831203138510D8
:1000E8000511051085150330F3009730F200F20B67
:1000F8007B28F30B7B2880280130F7070318F80AC0
:100108000030F807BA2883120313051085108511EB
:100118000515772883120313051005118511851419
:1001280077288312031385118510051105140330F0
:10013800F3009730F200F20B9F28F30B9F28A428B6
:10014800F701F801BA287808003A0319AC28BA2848
:100158007708003A03197128013A03198728033AE6
:1001680003198E28013A03199528BA280130F40793
:100178000318F50A0030F5077108803AF20075088F
:10018800803A7202031DCA28740870020318CD2829
:10019800CE281C2808008B178B150B10F428831603
:1001A8000313061416148316031386149614831661
:1001B800031306151615831603138615961583164D
:1001C8000313061616168316031386169616831639
:1001D8000313061716178316031386179617152980
:1001E800831203132108003A0319FB281529200854
:1001F800003A0319D328013A0319D728033A0319F7
:10020800DB28013A0319DF28073A0319E328013AE2
:100218000319E728033A0319EB28013A0319EF28D1
:10022800152908008B138B110B1C1B291C29442929
:100238008312031306182129222944297C08031D47
:100248002629272934290030F0000830F100013030
:100258000A128A1116200A128A11FC01FC0A442982
:100268007C03031D3829392944290030F00008305F
:10027800F10000300A128A1116200A128A11FC01B4
:100288008B178B150B107B088A007A088400790E6F
:100298008300FE0E7E0E09000A128A1163210A12DB
:1002A8008A11003083120313A000A1000A128A11D8
:1002B800CF200A128A115F290A128A110E28831682
:1002C8000317880189018316031385018312031319
:1002D8008501831603138601831203138601080020
:04400E00D4E0FFFFFC
:00000001FF
