:020000040000FA
:060000000A128A11FC2F18
:100E5E00831603130F088F3930388F0086018312E3
:100E6E000313860108000A128A112F270A128A110B
:100E7E000030F0000830F10001300A128A115527B7
:100E8E000A128A11A330F9005530F800F80B4D2FD5
:100E9E00F90B4D2F3F2F0A128A110028F500F6018B
:100EAE00F701F301F401ED2F7503031D5F2F602F82
:100EBE00A02F8D2F83120313861006118611061490
:100ECE005330F200F20B692F0130F6070318F70AC0
:100EDE000030F707A02F8312031306100611861198
:100EEE008614672F831203130610861086110615BB
:100EFE00672F8312031306108610061186155330C2
:100F0E00F200F20B882FF601F701A02F7708003AB6
:100F1E000319922FA02F7608003A0319612F013A78
:100F2E000319722F033A0319792F013A0319802FEF
:100F3E00A02F7508031DA42FA52FE72FD42F8312E2
:100F4E00031386100611061086155330F200F20BAD
:100F5E00AE2F0130F6070318F70A0030F707E72F18
:100F6E00831203130610861086110615AC2F8312FA
:100F7E0003130610061186118614AC2F8312031369
:100F8E0086118610061106145330F200F20BCD2F87
:100F9E000130F6000030F700E72F7708003A03190A
:100FAE00D92FE72F7608003A0319A62F013A031915
:100FBE00B72F033A0319BE2F013A0319C52FE72F96
:100FCE000130F3070318F40A0030F4077108803A71
:100FDE00F2007408803A7202031DF72F7308700234
:100FEE000318FA2FFB2F5B2F080083010A128A11B8
:020FFE003A2F88
:04400E00D4E0FFFFFC
:00000001FF
