:020000040000FA
:060000000A128A11FC2F18
:100E5800831603130F088F3930388F0086018312E9
:100E68000313860108000A128A112C270A128A1114
:100E78000330F0000030F10001300A128A115327C4
:100E88000A128A111130F9003A30F800F80B4A2F8B
:100E9800F90B4A2F00003C2F0A128A110028F5008E
:100EA800F601F701F301F401ED2F7503031D5D2F22
:100EB8005E2FA02F8D2F8312031386100611861123
:100EC80006145330F200F20B672F0130F6070318AF
:100ED800F70A0030F707A02F831203130610061134
:100EE80086118614652F8312031306108610861147
:100EF8000615652F83120313061086100611861532
:100F08005330F200F20B862F0130F6000030F70064
:100F1800A02F7708003A0319922FA02F7608003ADD
:100F280003195F2F013A0319702F033A0319772F1A
:100F3800013A03197E2FA02F7508031DA42FA52F92
:100F4800E72FD42F83120313861006110610861577
:100F58005330F200F20BAE2F0130F6070318F70AF0
:100F68000030F707E72F8312031306108610861147
:100F78000615AC2F8312031306100611861186146A
:100F8800AC2F8312031386118610061106145330F2
:100F9800F200F20BCD2F0130F6000030F700E72FFA
:100FA8007708003A0319D92FE72F7608003A031972
:100FB800A62F013A0319B72F033A0319BE2F013A96
:100FC8000319C52FE72F0130F3070318F40A00307F
:100FD800F4077108803AF2007408803A7202031D1F
:100FE800F72F730870020318FA2FFB2F592F0800E8
:080FF80083010A128A11372F50
:04400E00D4E0FFFFFC
:00000001FF
