:020000040000FA
:060000000A128A11FC2F18
:100EC800831603130F088F3930388F008601831279
:100ED8000313860108000A128A1164270A128A116C
:100EE800F501F60101300A128A11A0270A128A11A7
:100EF8000130F5070318F60A0030F6077608803A3D
:100F0800FF0082307F02031D8B2F00307502031C07
:100F18008E2F8F2F762F0230F4004530F300A93042
:100F2800F200F20B952FF30B952FF40B952F9C2FB6
:100F3800742F0A128A110028F1007108031DA52FC9
:100F4800A62FCE2F831203130614861006118611BE
:100F58005330F000F00BAE2F8312031306108614E3
:100F6800061186115330F000F00BB82F83120313CB
:100F780006108610061586115330F000F00BC22FAC
:100F88008312031306108610061186155330F000DD
:100F9800F00BCC2F7103031DD22FD32FFB2F8312FD
:100FA800031306108610061186155330F000F00B57
:100FB800DB2F831203130610861006158611533093
:100FC800F000F00BE52F83120313061086140611A8
:100FD80086115330F000F00BEF2F83120313061421
:100FE8008610061186115330F000F00BF92F080017
:080FF80083010A128A116F2F18
:04400E00D4E0FFFFFC
:00000001FF
