:020000040000FA
:060000000A128A11FC2F18
:100EBC00831603130F088F3930388F008601831285
:100ECC000313860108000A128A115E270A128A117E
:100EDC00FE30F0000130F10000300A128A1189272F
:100EEC000A128A110230F8004530F700A930F600DA
:100EFC00F60B7E2FF70B7E2FF80B7E2F852F6E2F88
:100F0C000A128A110028F500F301F401ED2F75087F
:100F1C00031D912F922FBA2F8312031386100611E3
:100F2C00861106145330F200F20B9A2F831203131E
:100F3C0006100611861186145330F200F20BA42F02
:100F4C008312031306108610861106155330F20017
:100F5C00F20BAE2F831203130610861006118615A2
:100F6C005330F200F20BB82F7503031DBE2FBF2FA9
:100F7C00E72F8312031306108610061186155330C3
:100F8C00F200F20BC72F8312031306108610861182
:100F9C0006155330F200F20BD12F831203130610F7
:100FAC000611861186145330F200F20BDB2F8312DC
:100FBC00031386100611861106145330F200F20B3F
:100FCC00E52F0130F3070318F40A0030F407710819
:100FDC00803AF2007408803A7202031DF72F7308EE
:100FEC0070020318FA2FFB2F8D2F080083010A12B1
:040FFC008A11692FBE
:04400E00D4E0FFFFFC
:00000001FF
