:020000040000FA
:060000000A128A11FC2F18
:100EE800831603130F088F3930388F008601831259
:100EF8000313860108000A128A1174270A128A113C
:100F0800F501F60101300A128A11B0270A128A1176
:100F18000130F5070318F60A0030F6077608803A1C
:100F2800FF0082307F02031D9B2F00307502031CD7
:100F38009E2F9F2F862F0230F4004530F300A930F2
:100F4800F200F20BA52FF30BA52FF40BA52FAC2F56
:100F5800842F0A128A110028F1007108031DB52F89
:100F6800B62FD62F01308312031386005330F000BA
:100F7800F00BBC2F02308312031386005330F000AD
:100F8800F00BC42F04308312031386005330F00093
:100F9800F00BCC2F08308312031386005330F00077
:100FA800F00BD42F7103031DDA2FDB2FFB2F083032
:100FB8008312031386005330F000F00BE12F043046
:100FC8008312031386005330F000F00BE92F023030
:100FD8008312031386005330F000F00BF12F013019
:100FE8008312031386005330F000F00BF92F08002A
:080FF80083010A128A117F2F08
:04400E00D4E0FFFFFC
:00000001FF
